{
  "contractName": "Initializable",
  "abi": [
    {
      "constant": true,
      "inputs": [],
      "name": "getInitializationBlock",
      "outputs": [
        {
          "name": "",
          "type": "uint256"
        }
      ],
      "payable": false,
      "stateMutability": "view",
      "type": "function"
    }
  ],
  "bytecode": "0x60606040523415600e57600080fd5b609f8061001c6000396000f300606060405260043610603f576000357c0100000000000000000000000000000000000000000000000000000000900463ffffffff1680638b3dd749146044575b600080fd5b3415604e57600080fd5b6054606a565b6040518082815260200191505060405180910390f35b600080549050905600a165627a7a72305820b9b5320f2aa2d78a13aaf07fb1a31de9c9c836fb1cef48a85373eaf43739a44e0029",
  "source": "pragma solidity 0.4.18;\n\ncontract Initializable {\n    uint256 private initializationBlock;\n\n    modifier onlyInit {\n        require(initializationBlock == 0);\n        _;\n    }\n    /**\n    * @dev Function to be called by top level contract after initialization has finished.\n    */\n    function initialized() internal onlyInit {\n        initializationBlock = getBlockNumber();\n    }\n\n    /**\n    * @return Block number in which the contract was initialized\n    */\n    function getInitializationBlock() public constant returns (uint256) {\n        return initializationBlock;\n    }\n\n    function getBlockNumber() internal constant returns (uint256) {\n        return block.number;\n    }\n}",
  "sourcePath": "/Users/WilliamHuang/Developer/Job-Development/BitNation/nations-framwork-poc/contracts/zeppelin/common/Initializable.sol",
  "compiler": {
    "name": "solc",
    "version": "0.4.18+commit.9cf6e910.Emscripten.clang"
  },
  "schemaVersion": "1.0.1",
  "updatedAt": "2017-11-28T18:40:55.142Z"
}