{
  "contractName": "Nation",
  "abi": [
    {
      "constant": false,
      "inputs": [
        {
          "name": "_nationId",
          "type": "uint256"
        }
      ],
      "name": "joinNation",
      "outputs": [],
      "payable": false,
      "stateMutability": "nonpayable",
      "type": "function"
    },
    {
      "constant": true,
      "inputs": [],
      "name": "numNations",
      "outputs": [
        {
          "name": "",
          "type": "uint256"
        }
      ],
      "payable": false,
      "stateMutability": "view",
      "type": "function"
    },
    {
      "constant": true,
      "inputs": [
        {
          "name": "_citizenAddress",
          "type": "address"
        },
        {
          "name": "_nationId",
          "type": "uint256"
        }
      ],
      "name": "checkCitizen",
      "outputs": [
        {
          "name": "",
          "type": "bool"
        }
      ],
      "payable": false,
      "stateMutability": "view",
      "type": "function"
    },
    {
      "constant": false,
      "inputs": [
        {
          "name": "_nationId",
          "type": "uint256"
        }
      ],
      "name": "leaveNation",
      "outputs": [],
      "payable": false,
      "stateMutability": "nonpayable",
      "type": "function"
    },
    {
      "constant": false,
      "inputs": [
        {
          "name": "_newNation",
          "type": "address"
        }
      ],
      "name": "upgradeNation",
      "outputs": [],
      "payable": false,
      "stateMutability": "nonpayable",
      "type": "function"
    },
    {
      "constant": true,
      "inputs": [],
      "name": "NationCoreVersion",
      "outputs": [
        {
          "name": "",
          "type": "uint256"
        }
      ],
      "payable": false,
      "stateMutability": "view",
      "type": "function"
    },
    {
      "constant": true,
      "inputs": [],
      "name": "getInitializationBlock",
      "outputs": [
        {
          "name": "",
          "type": "uint256"
        }
      ],
      "payable": false,
      "stateMutability": "view",
      "type": "function"
    },
    {
      "constant": true,
      "inputs": [],
      "name": "owner",
      "outputs": [
        {
          "name": "",
          "type": "address"
        }
      ],
      "payable": false,
      "stateMutability": "view",
      "type": "function"
    },
    {
      "constant": false,
      "inputs": [
        {
          "name": "_newOwner",
          "type": "address"
        }
      ],
      "name": "changeOwner",
      "outputs": [],
      "payable": false,
      "stateMutability": "nonpayable",
      "type": "function"
    },
    {
      "constant": true,
      "inputs": [],
      "name": "nationImpl",
      "outputs": [
        {
          "name": "",
          "type": "address"
        }
      ],
      "payable": false,
      "stateMutability": "view",
      "type": "function"
    },
    {
      "constant": true,
      "inputs": [
        {
          "name": "_founder",
          "type": "address"
        }
      ],
      "name": "getFoundedNations",
      "outputs": [
        {
          "name": "",
          "type": "uint256[]"
        }
      ],
      "payable": false,
      "stateMutability": "view",
      "type": "function"
    },
    {
      "constant": false,
      "inputs": [
        {
          "name": "_owner",
          "type": "address"
        }
      ],
      "name": "initialize",
      "outputs": [],
      "payable": false,
      "stateMutability": "nonpayable",
      "type": "function"
    },
    {
      "constant": false,
      "inputs": [
        {
          "name": "_core",
          "type": "string"
        },
        {
          "name": "_policies",
          "type": "string"
        },
        {
          "name": "_governance",
          "type": "string"
        }
      ],
      "name": "createNation",
      "outputs": [],
      "payable": false,
      "stateMutability": "nonpayable",
      "type": "function"
    },
    {
      "constant": true,
      "inputs": [
        {
          "name": "_nationId",
          "type": "uint256"
        }
      ],
      "name": "getNumCitizens",
      "outputs": [
        {
          "name": "",
          "type": "uint256"
        }
      ],
      "payable": false,
      "stateMutability": "view",
      "type": "function"
    },
    {
      "inputs": [],
      "payable": false,
      "stateMutability": "nonpayable",
      "type": "constructor"
    },
    {
      "anonymous": false,
      "inputs": [
        {
          "indexed": true,
          "name": "newNation",
          "type": "address"
        }
      ],
      "name": "UpgradeNation",
      "type": "event"
    },
    {
      "anonymous": false,
      "inputs": [
        {
          "indexed": true,
          "name": "newOwner",
          "type": "address"
        }
      ],
      "name": "OwnerChanged",
      "type": "event"
    },
    {
      "anonymous": false,
      "inputs": [
        {
          "indexed": true,
          "name": "founder",
          "type": "address"
        },
        {
          "indexed": true,
          "name": "nationId",
          "type": "uint256"
        }
      ],
      "name": "NationCreated",
      "type": "event"
    },
    {
      "anonymous": false,
      "inputs": [
        {
          "indexed": true,
          "name": "nationId",
          "type": "uint256"
        },
        {
          "indexed": false,
          "name": "citizenAddress",
          "type": "address"
        }
      ],
      "name": "CitizenJoined",
      "type": "event"
    },
    {
      "anonymous": false,
      "inputs": [
        {
          "indexed": true,
          "name": "nationId",
          "type": "uint256"
        },
        {
          "indexed": false,
          "name": "citizenAddress",
          "type": "address"
        }
      ],
      "name": "CitizenLeft",
      "type": "event"
    }
  ],
  "bytecode": "0x6060604052341561000f57600080fd5b6001600881905550610e6b806100266000396000f3006060604052600436106100d0576000357c0100000000000000000000000000000000000000000000000000000000900463ffffffff1680630a125d75146100d55780630a1f4d10146100f857806329fbb0b714610121578063562636531461017b5780636bcdf6841461019e57806388368171146101d75780638b3dd749146102005780638da5cb5b14610229578063a6f9dae11461027e578063bfb93db2146102b7578063c35fbfff1461030c578063c4d66de81461039a578063ce395e50146103d3578063d1f00ad114610429575b600080fd5b34156100e057600080fd5b6100f66004808035906020019091905050610460565b005b341561010357600080fd5b61010b61063f565b6040518082815260200191505060405180910390f35b341561012c57600080fd5b610161600480803573ffffffffffffffffffffffffffffffffffffffff16906020019091908035906020019091905050610645565b604051808215151515815260200191505060405180910390f35b341561018657600080fd5b61019c60048080359060200190919050506106ad565b005b34156101a957600080fd5b6101d5600480803573ffffffffffffffffffffffffffffffffffffffff1690602001909190505061088d565b005b34156101e257600080fd5b6101ea61096f565b6040518082815260200191505060405180910390f35b341561020b57600080fd5b610213610975565b6040518082815260200191505060405180910390f35b341561023457600080fd5b61023c61097f565b604051808273ffffffffffffffffffffffffffffffffffffffff1673ffffffffffffffffffffffffffffffffffffffff16815260200191505060405180910390f35b341561028957600080fd5b6102b5600480803573ffffffffffffffffffffffffffffffffffffffff169060200190919050506109a5565b005b34156102c257600080fd5b6102ca610a88565b604051808273ffffffffffffffffffffffffffffffffffffffff1673ffffffffffffffffffffffffffffffffffffffff16815260200191505060405180910390f35b341561031757600080fd5b610343600480803573ffffffffffffffffffffffffffffffffffffffff16906020019091905050610aad565b6040518080602001828103825283818151815260200191508051906020019060200280838360005b8381101561038657808201518184015260208101905061036b565b505050509050019250505060405180910390f35b34156103a557600080fd5b6103d1600480803573ffffffffffffffffffffffffffffffffffffffff16906020019091905050610b4a565b005b34156103de57600080fd5b6104276004808035906020019082018035906020019190919290803590602001908201803590602001919091929080359060200190820180359060200191909192905050610ba7565b005b341561043457600080fd5b61044a6004808035906020019091905050610d14565b6040518082815260200191505060405180910390f35b60008111151561046f57600080fd5b6000600460008381526020019081526020016000208054600181600116156101000203166002900490501115156104a557600080fd5b600015156002600083815260200190815260200160002060003373ffffffffffffffffffffffffffffffffffffffff1673ffffffffffffffffffffffffffffffffffffffff16815260200190815260200160002060009054906101000a900460ff16151514151561051557600080fd5b6003600082815260200190815260200160002054600160036000848152602001908152602001600020540111151561054c57600080fd5b60016002600083815260200190815260200160002060003373ffffffffffffffffffffffffffffffffffffffff1673ffffffffffffffffffffffffffffffffffffffff16815260200190815260200160002060006101000a81548160ff0219169083151502179055506003600082815260200190815260200160002060008154809291906001019190505550807fb4f10b2e9584a07f254934f59aec4ae9c6658a1e7b0b53b0f71353d8659a123033604051808273ffffffffffffffffffffffffffffffffffffffff1673ffffffffffffffffffffffffffffffffffffffff16815260200191505060405180910390a250565b60095481565b60006002600083815260200190815260200160002060008473ffffffffffffffffffffffffffffffffffffffff1673ffffffffffffffffffffffffffffffffffffffff16815260200190815260200160002060009054906101000a900460ff16905092915050565b6000811115156106bc57600080fd5b6000600460008381526020019081526020016000208054600181600116156101000203166002900490501115156106f257600080fd5b600115156002600083815260200190815260200160002060003373ffffffffffffffffffffffffffffffffffffffff1673ffffffffffffffffffffffffffffffffffffffff16815260200190815260200160002060009054906101000a900460ff16151514151561076257600080fd5b6003600082815260200190815260200160002054600160036000848152602001908152602001600020540310151561079957600080fd5b60006002600083815260200190815260200160002060003373ffffffffffffffffffffffffffffffffffffffff1673ffffffffffffffffffffffffffffffffffffffff16815260200190815260200160002060006101000a81548160ff021916908315150217905550600360008281526020019081526020016000206000815480929190600190039190505550807f52a35a8da1a8d5fddf3ef727810dd7f7d090a501e8e7bd1f6140447294f1550333604051808273ffffffffffffffffffffffffffffffffffffffff1673ffffffffffffffffffffffffffffffffffffffff16815260200191505060405180910390a250565b600a60009054906101000a900473ffffffffffffffffffffffffffffffffffffffff1673ffffffffffffffffffffffffffffffffffffffff163373ffffffffffffffffffffffffffffffffffffffff161415156108e957600080fd5b806000806101000a81548173ffffffffffffffffffffffffffffffffffffffff021916908373ffffffffffffffffffffffffffffffffffffffff1602179055508073ffffffffffffffffffffffffffffffffffffffff167f96dc278a09010354092c3b2beee61cbd40382700783ba6889beb923b4c9f099e60405160405180910390a250565b60085481565b6000600154905090565b600a60009054906101000a900473ffffffffffffffffffffffffffffffffffffffff1681565b600a60009054906101000a900473ffffffffffffffffffffffffffffffffffffffff1673ffffffffffffffffffffffffffffffffffffffff163373ffffffffffffffffffffffffffffffffffffffff16141515610a0157600080fd5b80600a60006101000a81548173ffffffffffffffffffffffffffffffffffffffff021916908373ffffffffffffffffffffffffffffffffffffffff1602179055508073ffffffffffffffffffffffffffffffffffffffff167fa2ea9883a321a3e97b8266c2b078bfeec6d50c711ed71f874a90d500ae2eaf3660405160405180910390a250565b6000809054906101000a900473ffffffffffffffffffffffffffffffffffffffff1681565b610ab5610d5a565b600760008373ffffffffffffffffffffffffffffffffffffffff1673ffffffffffffffffffffffffffffffffffffffff168152602001908152602001600020805480602002602001604051908101604052809291908181526020018280548015610b3e57602002820191906000526020600020905b815481526020019060010190808311610b2a575b50505050509050919050565b6000600154141515610b5b57600080fd5b610b63610d31565b80600a60006101000a81548173ffffffffffffffffffffffffffffffffffffffff021916908373ffffffffffffffffffffffffffffffffffffffff16021790555050565b600086869050111515610bb957600080fd5b600084849050111515610bcb57600080fd5b600082829050111515610bdd57600080fd5b60096000815480929190600101919050555085856004600060095481526020019081526020016000209190610c13929190610d6e565b5083836005600060095481526020019081526020016000209190610c38929190610d6e565b5081816006600060095481526020019081526020016000209190610c5d929190610d6e565b50600760003373ffffffffffffffffffffffffffffffffffffffff1673ffffffffffffffffffffffffffffffffffffffff1681526020019081526020016000208054806001018281610caf9190610dee565b91600052602060002090016000600954909190915055506009543373ffffffffffffffffffffffffffffffffffffffff167f562630beb8244d7ec96e76e47e7a2fb8bad10514d9067249365bab6feb22bcf960405160405180910390a3505050505050565b600060036000838152602001908152602001600020549050919050565b6000600154141515610d4257600080fd5b610d4a610d52565b600181905550565b600043905090565b602060405190810160405280600081525090565b828054600181600116156101000203166002900490600052602060002090601f016020900481019282601f10610daf57803560ff1916838001178555610ddd565b82800160010185558215610ddd579182015b82811115610ddc578235825591602001919060010190610dc1565b5b509050610dea9190610e1a565b5090565b815481835581811511610e1557818360005260206000209182019101610e149190610e1a565b5b505050565b610e3c91905b80821115610e38576000816000905550600101610e20565b5090565b905600a165627a7a72305820894df5478aabd44105fba2c9dc0423b004270cad52381ecd87abd0fc1ae55f510029",
  "source": "pragma solidity ^0.4.18;\n\nimport \"./NationStorage.sol\";\nimport \"../common/Initializable.sol\";\n\n/**\n * @title Nation\n * @dev Base Nation contract that acts as a nation registry for BitNation\n * Upgrade by calling nationImplementation.upgradeNation(upgradedImplementation.address)\n */\ncontract Nation is NationStorage, Initializable {\n\n//    struct NationCore {\n//\n//        uint nationId;\n//        string nationName;\n//        string nationDescription;\n//\n//        bool exists;\n//        bool virtualNation;\n//        address founder;\n//\n//    }\n//\n//    struct NationPolicy {\n//\n//        uint nationId;\n//        string nationCode;\n//        string nationCodeLink;\n//        string lawEnforcementMechanism;\n//        bool profit;\n//\n//    }\n//\n//    struct NationGovernance {\n//\n//        uint nationId;\n//        bool nonCitizenUse;\n//        bool diplomaticRecognition;\n//        string decisionMakingProcess;\n//        string governanceService;\n//\n//    }\n\n    // Mapping for nationId => mapping of address to true if citizen exists\n    mapping (uint => mapping (address => bool)) citizensMapping;\n    // Mapping for nationId => numCitizens\n    mapping (uint => uint) numCitizensMapping;\n\n    // @dev mappings for nation id => nation properties\n//    mapping (uint => NationCore) nationCoreMapping;\n//    mapping (uint => NationPolicy) nationPolicyMapping;\n//    mapping (uint => NationGovernance) nationGovernanceMapping;\n    mapping (uint => string) nationSingleCoreMapping;\n    mapping (uint => string) nationSinglePolicyMapping;\n    mapping (uint => string) nationSingleGovernanceMapping;\n//    mapping (uint => string) nationIds;\n    mapping (address => uint[]) foundedNations;\n\n    // @dev keep track of the contract properties\n    uint public NationCoreVersion;\n    uint public numNations;\n    address public owner;\n\n\n    // EVENTS\n\n    // logged events:\n    // The nations contract has been upgraded (!IMPORTANT)\n    event UpgradeNation(address indexed newNation);\n    // Event for changing the owner of this contract\n    event OwnerChanged(address indexed newOwner);\n    // Events for when a nation's properties have been altered/created\n//    event NationCoreCreated(address indexed founder, string nationName, uint indexed nationId);\n//    event NationPolicySet(string nationName, uint indexed nationId);\n//    event NationGovernanceSet(string nationName, uint indexed nationId);\n    event NationCreated(address indexed founder, uint indexed nationId);\n    // Events for citizens\n    event CitizenJoined(uint indexed nationId, address citizenAddress);\n    event CitizenLeft(uint indexed nationId, address citizenAddress);\n\n    // Constructor for the nations contract. Sets the nations version as 1\n    function Nation() public {\n        NationCoreVersion = 1;\n    }\n\n    /**\n     * @dev Initialize the Nation contract after it has been deployed.\n     *  _owner address representing the owner that can upgrade this contract.\n     */\n    function initialize(address _owner) onlyInit public {\n        initialized();\n        owner = _owner;\n    }\n\n    /**\n    * @dev Changes the owner of this contract\n    *  _newOwner Address for new owner\n    */\n    function changeOwner(address _newOwner) external {\n        require(msg.sender == owner);\n        owner = _newOwner;\n        OwnerChanged(_newOwner);\n    }\n\n    /**\n     * @dev Get a nation's name using the nation id\n     *  _nationId uint the id of the nation that you want the name of.\n     * @return An string that is the nation name.\n     */\n//    function getNationName(uint _nationId) public constant returns (string) {\n//        return nationIds[_nationId];\n//    }\n\n    /**\n     * @dev Get a nation's core properties using the nation id\n     *  _nationId uint the id of the nation that you want the properties of.\n     * @return A NationCore that corresponds to the nation id.\n     */\n//    function getNationCore(uint _nationId) public constant returns (\n//        string _nationName,\n//        string _nationDescription,\n//        bool _exists,\n//        bool _virtualNation,\n//        address _founder\n//    ){\n//\n//        NationCore memory nationCore = nationCoreMapping[_nationId];\n//\n//        _nationName = nationCore.nationName;\n//        _nationDescription = nationCore.nationDescription;\n//        _exists = nationCore.exists;\n//        _virtualNation = nationCore.virtualNation;\n//        _founder = nationCore.founder;\n//\n//    }\n\n    /**\n     * @dev Get a nation's policies using the nation id\n     *  _nationId uint the id of the nation that you want the policies of.\n     * @return A NationPolicy that corresponds to the nation id.\n     */\n//    function getNationPolicy(uint _nationId) public constant returns (\n//        string _nationCode,\n//        string _nationCodeLink,\n//        string _lawEnforcementMechanism,\n//        bool _profit\n//    ) {\n//\n//        NationPolicy memory nationPolicy = nationPolicyMapping[_nationId];\n//\n//        _nationCode = nationPolicy.nationCode;\n//        _nationCodeLink = nationPolicy.nationCodeLink;\n//        _lawEnforcementMechanism = nationPolicy.lawEnforcementMechanism;\n//        _profit = nationPolicy.profit;\n//\n//    }\n\n    /**\n     * @dev Get a nation's governance model using the nation id\n     *  _nationId uint the id of the nation that you want the governance model of.\n     * @return A NationGovernance that corresponds to the nation id.\n     */\n//    function getNationGovernance(uint _nationId) public constant returns (\n//        string _decisionMakingProcess,\n//        bool _diplomaticRecognition,\n//        string _governanceService,\n//        bool _nonCitizenUse\n//    ) {\n//\n//        NationGovernance memory nationGovernance = nationGovernanceMapping[_nationId];\n//\n//        _decisionMakingProcess = nationGovernance.decisionMakingProcess;\n//        _diplomaticRecognition = nationGovernance.diplomaticRecognition;\n//        _governanceService = nationGovernance.governanceService;\n//        _nonCitizenUse = nationGovernance.nonCitizenUse;\n//    }\n\n    function createNation(string _core, string _policies, string _governance) external {\n\n        require(bytes(_core).length > 0);\n        require(bytes(_policies).length > 0);\n        require(bytes(_governance).length > 0);\n\n        numNations++;\n\n        nationSingleCoreMapping[numNations] = _core;\n        nationSinglePolicyMapping[numNations] = _policies;\n        nationSingleGovernanceMapping[numNations] = _governance;\n\n        foundedNations[msg.sender].push(numNations);\n\n        NationCreated(msg.sender, numNations);\n\n    }\n\n    /**\n     * @dev Create a nation by providing the core properties of that nation.\n     * Additional properties (policies, governance) can be set at a later time.\n     *  _nationName string the name of the nation.\n     *  _nationDescription string the description of the nation.\n     *  _exists bool whether the nation is a real one or not.\n     *  _virtualNation bool if the nation is a virtual one.\n     */\n//    function createNationCore(string _nationName, string _nationDescription, bool _exists, bool _virtualNation) external {\n//\n//        require(bytes(_nationName).length > 0);\n//\n//        numNations++;\n//\n//        nationCoreMapping[numNations] = NationCore({\n//            nationId: numNations,\n//            nationName: _nationName,\n//            nationDescription: _nationDescription,\n//            exists: _exists,\n//            virtualNation: _virtualNation,\n//            founder: msg.sender\n//        });\n//\n//        nationIds[numNations] = _nationName;\n//\n//        foundedNations[msg.sender].push(numNations);\n//\n//        NationCoreCreated(msg.sender, _nationName, numNations);\n//\n//    }\n\n    /**\n     * @dev Set a nation's policies. Can only be set by the original founder of the nation.\n     *  _nationId uint the id of the nation.\n     */\n//    function SetNationPolicy (\n//        uint _nationId,\n//        string _nationCode,\n//        string _nationCodeLink,\n//        string _lawEnforcementMechanism,\n//        bool _profit\n//    ) public {\n//\n//        require(_nationId > 0);\n//        require(nationCoreMapping[_nationId].nationId > 0);\n//        require(nationCoreMapping[_nationId].founder == msg.sender);\n//        // ensures that the policy can only be set once\n//        require(nationPolicyMapping[_nationId].nationId == 0);\n//\n//        nationPolicyMapping[_nationId] = NationPolicy({\n//            nationId: _nationId,\n//            nationCode: _nationCode,\n//            nationCodeLink: _nationCodeLink,\n//            lawEnforcementMechanism: _lawEnforcementMechanism,\n//            profit: _profit\n//        });\n//\n//        NationPolicySet(nationIds[_nationId], _nationId);\n//\n//    }\n\n    /**\n     * @dev Set a nation's governance model. Can only be set by the original founder of the nation.\n     *  _nationId uint the id of the nation.\n     */\n//    function SetNationGovernance (\n//        uint _nationId,\n//        string _decisionMakingProcess,\n//        bool _diplomaticRecognition,\n//        string _governanceService,\n//        bool _nonCitizenUse\n//    ) public {\n//        require(_nationId > 0);\n//        require(nationCoreMapping[_nationId].nationId > 0);\n//        require(nationCoreMapping[_nationId].founder == msg.sender);\n//        // Ensures that the governance can only be set once\n//        require(nationGovernanceMapping[_nationId].nationId == 0);\n//\n//        nationGovernanceMapping[_nationId] = NationGovernance({\n//            nationId: _nationId,\n//            decisionMakingProcess: _decisionMakingProcess,\n//            diplomaticRecognition: _diplomaticRecognition,\n//            governanceService: _governanceService,\n//            nonCitizenUse: _nonCitizenUse\n//        });\n//\n//        NationGovernanceSet(nationIds[_nationId], _nationId);\n//    }\n\n    /**\n    * @dev Changes nation implementation reference to a new address\n    * @notice Upgrade nation to new implementation at address `_newNation` (CRITICAL!)\n    *  _newNation Address for new nation code\n    */\n    function upgradeNation(address _newNation) external {\n        require(msg.sender == owner);\n        nationImpl = _newNation;\n        UpgradeNation(_newNation);\n    }\n\n    /**\n    * @dev Adds a user to a nation's citizen registry\n    *  _nationId id of the nation that the citizen wants to join\n    */\n    function joinNation(uint _nationId) public {\n        // Make sure the nation exists first\n        require(_nationId > 0);\n        require(bytes(nationSingleCoreMapping[_nationId]).length > 0);\n        // Make sure the user is not already part of the nation\n        require(citizensMapping[_nationId][msg.sender] == false);\n        // overflow check\n        require(numCitizensMapping[_nationId] + 1 > numCitizensMapping[_nationId]);\n\n        citizensMapping[_nationId][msg.sender] = true;\n        numCitizensMapping[_nationId]++;\n\n        CitizenJoined(_nationId, msg.sender);\n    }\n\n    /**\n    * @dev Removes a user from a nation's citizen registry\n    *  _nationId id of the nation that the citizen wants to leave\n    */\n    function leaveNation(uint _nationId) public {\n        // Make sure the nation exists first\n        require(_nationId > 0);\n        require(bytes(nationSingleCoreMapping[_nationId]).length > 0);\n        // Must be already in the nation\n        require(citizensMapping[_nationId][msg.sender] == true);\n        // overflow check\n        require(numCitizensMapping[_nationId] - 1 < numCitizensMapping[_nationId]);\n\n        citizensMapping[_nationId][msg.sender] = false;\n        numCitizensMapping[_nationId]--;\n\n        CitizenLeft(_nationId, msg.sender);\n    }\n\n    /**\n    * @dev Checks to see if an address is a member of a nation\n    *  _citizenAddress address of the citizen you want to check\n    *  _nationId id of the nation that is being checked\n    */\n    function checkCitizen(address _citizenAddress, uint _nationId) public constant returns (bool) {\n        return citizensMapping[_nationId][_citizenAddress];\n    }\n\n    /**\n    * @dev Checks the number of citizens in a nation\n    *  _nationId id of the nation that is being checked\n    */\n    function getNumCitizens(uint _nationId) public constant returns (uint) {\n        return numCitizensMapping[_nationId];\n    }\n\n    /**\n    * @dev Gets an array of the nation ids that a founder has created\n    *  _founder address of the founder that is being searched\n    */\n    function getFoundedNations(address _founder) public constant returns (uint[]) {\n        return foundedNations[_founder];\n    }\n\n}\n\n\n\n",
  "sourcePath": "/Users/WilliamHuang/Developer/Job-Development/BitNation/nation-framework/contracts/nation/Nation.sol",
  "compiler": {
    "name": "solc",
    "version": "0.4.18+commit.9cf6e910.Emscripten.clang"
  },
  "schemaVersion": "1.0.1",
  "updatedAt": "2018-01-21T17:10:54.965Z"
}