{
  "contractName": "Nation",
  "abi": [
    {
      "constant": false,
      "inputs": [
        {
          "name": "_nationId",
          "type": "uint256"
        }
      ],
      "name": "joinNation",
      "outputs": [],
      "payable": false,
      "stateMutability": "nonpayable",
      "type": "function"
    },
    {
      "constant": true,
      "inputs": [],
      "name": "numNations",
      "outputs": [
        {
          "name": "",
          "type": "uint256"
        }
      ],
      "payable": false,
      "stateMutability": "view",
      "type": "function"
    },
    {
      "constant": false,
      "inputs": [
        {
          "name": "_metaData",
          "type": "string"
        }
      ],
      "name": "createNation",
      "outputs": [],
      "payable": false,
      "stateMutability": "nonpayable",
      "type": "function"
    },
    {
      "constant": true,
      "inputs": [
        {
          "name": "_citizenAddress",
          "type": "address"
        },
        {
          "name": "_nationId",
          "type": "uint256"
        }
      ],
      "name": "checkCitizen",
      "outputs": [
        {
          "name": "",
          "type": "bool"
        }
      ],
      "payable": false,
      "stateMutability": "view",
      "type": "function"
    },
    {
      "constant": false,
      "inputs": [
        {
          "name": "_nationId",
          "type": "uint256"
        }
      ],
      "name": "leaveNation",
      "outputs": [],
      "payable": false,
      "stateMutability": "nonpayable",
      "type": "function"
    },
    {
      "constant": false,
      "inputs": [
        {
          "name": "_newNation",
          "type": "address"
        }
      ],
      "name": "upgradeNation",
      "outputs": [],
      "payable": false,
      "stateMutability": "nonpayable",
      "type": "function"
    },
    {
      "constant": true,
      "inputs": [],
      "name": "NationCoreVersion",
      "outputs": [
        {
          "name": "",
          "type": "uint256"
        }
      ],
      "payable": false,
      "stateMutability": "view",
      "type": "function"
    },
    {
      "constant": true,
      "inputs": [],
      "name": "getInitializationBlock",
      "outputs": [
        {
          "name": "",
          "type": "uint256"
        }
      ],
      "payable": false,
      "stateMutability": "view",
      "type": "function"
    },
    {
      "constant": true,
      "inputs": [],
      "name": "owner",
      "outputs": [
        {
          "name": "",
          "type": "address"
        }
      ],
      "payable": false,
      "stateMutability": "view",
      "type": "function"
    },
    {
      "constant": false,
      "inputs": [
        {
          "name": "_newOwner",
          "type": "address"
        }
      ],
      "name": "changeOwner",
      "outputs": [],
      "payable": false,
      "stateMutability": "nonpayable",
      "type": "function"
    },
    {
      "constant": true,
      "inputs": [],
      "name": "nationImpl",
      "outputs": [
        {
          "name": "",
          "type": "address"
        }
      ],
      "payable": false,
      "stateMutability": "view",
      "type": "function"
    },
    {
      "constant": true,
      "inputs": [
        {
          "name": "_founder",
          "type": "address"
        }
      ],
      "name": "getFoundedNations",
      "outputs": [
        {
          "name": "",
          "type": "uint256[]"
        }
      ],
      "payable": false,
      "stateMutability": "view",
      "type": "function"
    },
    {
      "constant": false,
      "inputs": [
        {
          "name": "_owner",
          "type": "address"
        }
      ],
      "name": "initialize",
      "outputs": [],
      "payable": false,
      "stateMutability": "nonpayable",
      "type": "function"
    },
    {
      "constant": true,
      "inputs": [
        {
          "name": "_nationId",
          "type": "uint256"
        }
      ],
      "name": "getNumCitizens",
      "outputs": [
        {
          "name": "",
          "type": "uint256"
        }
      ],
      "payable": false,
      "stateMutability": "view",
      "type": "function"
    },
    {
      "inputs": [],
      "payable": false,
      "stateMutability": "nonpayable",
      "type": "constructor"
    },
    {
      "anonymous": false,
      "inputs": [
        {
          "indexed": true,
          "name": "newNation",
          "type": "address"
        }
      ],
      "name": "UpgradeNation",
      "type": "event"
    },
    {
      "anonymous": false,
      "inputs": [
        {
          "indexed": true,
          "name": "newOwner",
          "type": "address"
        }
      ],
      "name": "OwnerChanged",
      "type": "event"
    },
    {
      "anonymous": false,
      "inputs": [
        {
          "indexed": true,
          "name": "founder",
          "type": "address"
        },
        {
          "indexed": true,
          "name": "nationId",
          "type": "uint256"
        }
      ],
      "name": "NationCreated",
      "type": "event"
    },
    {
      "anonymous": false,
      "inputs": [
        {
          "indexed": true,
          "name": "nationId",
          "type": "uint256"
        },
        {
          "indexed": false,
          "name": "citizenAddress",
          "type": "address"
        }
      ],
      "name": "CitizenJoined",
      "type": "event"
    },
    {
      "anonymous": false,
      "inputs": [
        {
          "indexed": true,
          "name": "nationId",
          "type": "uint256"
        },
        {
          "indexed": false,
          "name": "citizenAddress",
          "type": "address"
        }
      ],
      "name": "CitizenLeft",
      "type": "event"
    }
  ],
  "bytecode": "0x6060604052341561000f57600080fd5b6001600681905550610dd1806100266000396000f3006060604052600436106100d0576000357c0100000000000000000000000000000000000000000000000000000000900463ffffffff1680630a125d75146100d55780630a1f4d10146100f85780632425681d1461012157806329fbb0b71461014f57806356263653146101a95780636bcdf684146101cc57806388368171146102055780638b3dd7491461022e5780638da5cb5b14610257578063a6f9dae1146102ac578063bfb93db2146102e5578063c35fbfff1461033a578063c4d66de8146103c8578063d1f00ad114610401575b600080fd5b34156100e057600080fd5b6100f66004808035906020019091905050610438565b005b341561010357600080fd5b61010b610617565b6040518082815260200191505060405180910390f35b341561012c57600080fd5b61014d6004808035906020019082018035906020019190919290505061061d565b005b341561015a57600080fd5b61018f600480803573ffffffffffffffffffffffffffffffffffffffff16906020019091908035906020019091905050610718565b604051808215151515815260200191505060405180910390f35b34156101b457600080fd5b6101ca6004808035906020019091905050610780565b005b34156101d757600080fd5b610203600480803573ffffffffffffffffffffffffffffffffffffffff16906020019091905050610960565b005b341561021057600080fd5b610218610a42565b6040518082815260200191505060405180910390f35b341561023957600080fd5b610241610a48565b6040518082815260200191505060405180910390f35b341561026257600080fd5b61026a610a52565b604051808273ffffffffffffffffffffffffffffffffffffffff1673ffffffffffffffffffffffffffffffffffffffff16815260200191505060405180910390f35b34156102b757600080fd5b6102e3600480803573ffffffffffffffffffffffffffffffffffffffff16906020019091905050610a78565b005b34156102f057600080fd5b6102f8610b5b565b604051808273ffffffffffffffffffffffffffffffffffffffff1673ffffffffffffffffffffffffffffffffffffffff16815260200191505060405180910390f35b341561034557600080fd5b610371600480803573ffffffffffffffffffffffffffffffffffffffff16906020019091905050610b80565b6040518080602001828103825283818151815260200191508051906020019060200280838360005b838110156103b4578082015181840152602081019050610399565b505050509050019250505060405180910390f35b34156103d357600080fd5b6103ff600480803573ffffffffffffffffffffffffffffffffffffffff16906020019091905050610c1d565b005b341561040c57600080fd5b6104226004808035906020019091905050610c7a565b6040518082815260200191505060405180910390f35b60008111151561044757600080fd5b60006004600083815260200190815260200160002080546001816001161561010002031660029004905011151561047d57600080fd5b600015156002600083815260200190815260200160002060003373ffffffffffffffffffffffffffffffffffffffff1673ffffffffffffffffffffffffffffffffffffffff16815260200190815260200160002060009054906101000a900460ff1615151415156104ed57600080fd5b6003600082815260200190815260200160002054600160036000848152602001908152602001600020540111151561052457600080fd5b60016002600083815260200190815260200160002060003373ffffffffffffffffffffffffffffffffffffffff1673ffffffffffffffffffffffffffffffffffffffff16815260200190815260200160002060006101000a81548160ff0219169083151502179055506003600082815260200190815260200160002060008154809291906001019190505550807fb4f10b2e9584a07f254934f59aec4ae9c6658a1e7b0b53b0f71353d8659a123033604051808273ffffffffffffffffffffffffffffffffffffffff1673ffffffffffffffffffffffffffffffffffffffff16815260200191505060405180910390a250565b60075481565b60008282905011151561062f57600080fd5b60076000815480929190600101919050555081816004600060075481526020019081526020016000209190610665929190610cc0565b50600560003373ffffffffffffffffffffffffffffffffffffffff1673ffffffffffffffffffffffffffffffffffffffff16815260200190815260200160002080548060010182816106b79190610d40565b91600052602060002090016000600754909190915055506007543373ffffffffffffffffffffffffffffffffffffffff167f562630beb8244d7ec96e76e47e7a2fb8bad10514d9067249365bab6feb22bcf960405160405180910390a35050565b60006002600083815260200190815260200160002060008473ffffffffffffffffffffffffffffffffffffffff1673ffffffffffffffffffffffffffffffffffffffff16815260200190815260200160002060009054906101000a900460ff16905092915050565b60008111151561078f57600080fd5b6000600460008381526020019081526020016000208054600181600116156101000203166002900490501115156107c557600080fd5b600115156002600083815260200190815260200160002060003373ffffffffffffffffffffffffffffffffffffffff1673ffffffffffffffffffffffffffffffffffffffff16815260200190815260200160002060009054906101000a900460ff16151514151561083557600080fd5b6003600082815260200190815260200160002054600160036000848152602001908152602001600020540310151561086c57600080fd5b60006002600083815260200190815260200160002060003373ffffffffffffffffffffffffffffffffffffffff1673ffffffffffffffffffffffffffffffffffffffff16815260200190815260200160002060006101000a81548160ff021916908315150217905550600360008281526020019081526020016000206000815480929190600190039190505550807f52a35a8da1a8d5fddf3ef727810dd7f7d090a501e8e7bd1f6140447294f1550333604051808273ffffffffffffffffffffffffffffffffffffffff1673ffffffffffffffffffffffffffffffffffffffff16815260200191505060405180910390a250565b600860009054906101000a900473ffffffffffffffffffffffffffffffffffffffff1673ffffffffffffffffffffffffffffffffffffffff163373ffffffffffffffffffffffffffffffffffffffff161415156109bc57600080fd5b806000806101000a81548173ffffffffffffffffffffffffffffffffffffffff021916908373ffffffffffffffffffffffffffffffffffffffff1602179055508073ffffffffffffffffffffffffffffffffffffffff167f96dc278a09010354092c3b2beee61cbd40382700783ba6889beb923b4c9f099e60405160405180910390a250565b60065481565b6000600154905090565b600860009054906101000a900473ffffffffffffffffffffffffffffffffffffffff1681565b600860009054906101000a900473ffffffffffffffffffffffffffffffffffffffff1673ffffffffffffffffffffffffffffffffffffffff163373ffffffffffffffffffffffffffffffffffffffff16141515610ad457600080fd5b80600860006101000a81548173ffffffffffffffffffffffffffffffffffffffff021916908373ffffffffffffffffffffffffffffffffffffffff1602179055508073ffffffffffffffffffffffffffffffffffffffff167fa2ea9883a321a3e97b8266c2b078bfeec6d50c711ed71f874a90d500ae2eaf3660405160405180910390a250565b6000809054906101000a900473ffffffffffffffffffffffffffffffffffffffff1681565b610b88610d6c565b600560008373ffffffffffffffffffffffffffffffffffffffff1673ffffffffffffffffffffffffffffffffffffffff168152602001908152602001600020805480602002602001604051908101604052809291908181526020018280548015610c1157602002820191906000526020600020905b815481526020019060010190808311610bfd575b50505050509050919050565b6000600154141515610c2e57600080fd5b610c36610c97565b80600860006101000a81548173ffffffffffffffffffffffffffffffffffffffff021916908373ffffffffffffffffffffffffffffffffffffffff16021790555050565b600060036000838152602001908152602001600020549050919050565b6000600154141515610ca857600080fd5b610cb0610cb8565b600181905550565b600043905090565b828054600181600116156101000203166002900490600052602060002090601f016020900481019282601f10610d0157803560ff1916838001178555610d2f565b82800160010185558215610d2f579182015b82811115610d2e578235825591602001919060010190610d13565b5b509050610d3c9190610d80565b5090565b815481835581811511610d6757818360005260206000209182019101610d669190610d80565b5b505050565b602060405190810160405280600081525090565b610da291905b80821115610d9e576000816000905550600101610d86565b5090565b905600a165627a7a723058202a1ba440626eb2c66dfe0a1648d26fa1b6a775096562eb404c56fdbdad9cdfdd0029",
  "source": "pragma solidity ^0.4.18;\n\nimport \"./NationStorage.sol\";\nimport \"../common/Initializable.sol\";\n\n/**\n * @title Nation\n * @dev Base Nation contract that acts as a nation registry for BitNation\n * Upgrade by calling nationImplementation.upgradeNation(upgradedImplementation.address)\n */\ncontract Nation is NationStorage, Initializable {\n\n    // Mapping for nationId => mapping of address to true if citizen exists\n    mapping (uint => mapping (address => bool)) citizensMapping;\n    // Mapping for nationId => numCitizens\n    mapping (uint => uint) numCitizensMapping;\n\n    // Mapping for nation and metadata\n    mapping (uint => string) nationMetadata;\n    mapping (address => uint[]) foundedNations;\n\n    // @dev keep track of the contract properties\n    uint public NationCoreVersion;\n    uint public numNations;\n    address public owner;\n\n\n    // EVENTS\n\n    // logged events:\n    // The nations contract has been upgraded (!IMPORTANT)\n    event UpgradeNation(address indexed newNation);\n    // Event for changing the owner of this contract\n    event OwnerChanged(address indexed newOwner);\n    event NationCreated(address indexed founder, uint indexed nationId);\n    // Events for citizens\n    event CitizenJoined(uint indexed nationId, address citizenAddress);\n    event CitizenLeft(uint indexed nationId, address citizenAddress);\n\n    // Constructor for the nations contract. Sets the nations version as 1\n    function Nation() public {\n        NationCoreVersion = 1;\n    }\n\n    /**\n     * @dev Initialize the Nation contract after it has been deployed.\n     *  _owner address representing the owner that can upgrade this contract.\n     */\n    function initialize(address _owner) onlyInit public {\n        initialized();\n        owner = _owner;\n    }\n\n    /**\n    * @dev Changes the owner of this contract\n    *  _newOwner Address for new owner\n    */\n    function changeOwner(address _newOwner) external {\n        require(msg.sender == owner);\n        owner = _newOwner;\n        OwnerChanged(_newOwner);\n    }\n\n    function createNation(string _metaData) external {\n\n        require(bytes(_metaData).length > 0);\n\n        numNations++;\n\n        nationMetadata[numNations] = _metaData;\n\n        foundedNations[msg.sender].push(numNations);\n\n        NationCreated(msg.sender, numNations);\n\n    }\n\n    /**\n    * @dev Changes nation implementation reference to a new address\n    * @notice Upgrade nation to new implementation at address `_newNation` (CRITICAL!)\n    *  _newNation Address for new nation code\n    */\n    function upgradeNation(address _newNation) external {\n        require(msg.sender == owner);\n        nationImpl = _newNation;\n        UpgradeNation(_newNation);\n    }\n\n    /**\n    * @dev Adds a user to a nation's citizen registry\n    *  _nationId id of the nation that the citizen wants to join\n    */\n    function joinNation(uint _nationId) public {\n        // Make sure the nation exists first\n        require(_nationId > 0);\n        require(bytes(nationMetadata[_nationId]).length > 0);\n        // Make sure the user is not already part of the nation\n        require(citizensMapping[_nationId][msg.sender] == false);\n        // overflow check\n        require(numCitizensMapping[_nationId] + 1 > numCitizensMapping[_nationId]);\n\n        citizensMapping[_nationId][msg.sender] = true;\n        numCitizensMapping[_nationId]++;\n\n        CitizenJoined(_nationId, msg.sender);\n    }\n\n    /**\n    * @dev Removes a user from a nation's citizen registry\n    *  _nationId id of the nation that the citizen wants to leave\n    */\n    function leaveNation(uint _nationId) public {\n        // Make sure the nation exists first\n        require(_nationId > 0);\n        require(bytes(nationMetadata[_nationId]).length > 0);\n        // Must be already in the nation\n        require(citizensMapping[_nationId][msg.sender] == true);\n        // overflow check\n        require(numCitizensMapping[_nationId] - 1 < numCitizensMapping[_nationId]);\n\n        citizensMapping[_nationId][msg.sender] = false;\n        numCitizensMapping[_nationId]--;\n\n        CitizenLeft(_nationId, msg.sender);\n    }\n\n    /**\n    * @dev Checks to see if an address is a member of a nation\n    *  _citizenAddress address of the citizen you want to check\n    *  _nationId id of the nation that is being checked\n    */\n    function checkCitizen(address _citizenAddress, uint _nationId) public constant returns (bool) {\n        return citizensMapping[_nationId][_citizenAddress];\n    }\n\n    /**\n    * @dev Checks the number of citizens in a nation\n    *  _nationId id of the nation that is being checked\n    */\n    function getNumCitizens(uint _nationId) public constant returns (uint) {\n        return numCitizensMapping[_nationId];\n    }\n\n    /**\n    * @dev Gets an array of the nation ids that a founder has created\n    *  _founder address of the founder that is being searched\n    */\n    function getFoundedNations(address _founder) public constant returns (uint[]) {\n        return foundedNations[_founder];\n    }\n\n}\n\n\n\n",
  "sourcePath": "/Users/WilliamHuang/Developer/Job-Development/BitNation/nation-framework/contracts/nation/Nation.sol",
  "compiler": {
    "name": "solc",
    "version": "0.4.18+commit.9cf6e910.Emscripten.clang"
  },
  "schemaVersion": "1.0.1",
  "updatedAt": "2018-01-23T17:09:00.539Z"
}