{
  "contractName": "Nation",
  "abi": [
    {
      "constant": false,
      "inputs": [
        {
          "name": "_nationId",
          "type": "uint256"
        }
      ],
      "name": "joinNation",
      "outputs": [],
      "payable": false,
      "stateMutability": "nonpayable",
      "type": "function"
    },
    {
      "constant": true,
      "inputs": [],
      "name": "numNations",
      "outputs": [
        {
          "name": "",
          "type": "uint256"
        }
      ],
      "payable": false,
      "stateMutability": "view",
      "type": "function"
    },
    {
      "constant": true,
      "inputs": [
        {
          "name": "_citizenAddress",
          "type": "address"
        },
        {
          "name": "_nationId",
          "type": "uint256"
        }
      ],
      "name": "checkCitizen",
      "outputs": [
        {
          "name": "",
          "type": "bool"
        }
      ],
      "payable": false,
      "stateMutability": "view",
      "type": "function"
    },
    {
      "constant": true,
      "inputs": [
        {
          "name": "_nationId",
          "type": "uint256"
        }
      ],
      "name": "getNationGovernance",
      "outputs": [
        {
          "name": "_decisionMakingProcess",
          "type": "string"
        },
        {
          "name": "_diplomaticRecognition",
          "type": "bool"
        },
        {
          "name": "_governanceService",
          "type": "string"
        },
        {
          "name": "_nonCitizenUse",
          "type": "bool"
        }
      ],
      "payable": false,
      "stateMutability": "view",
      "type": "function"
    },
    {
      "constant": false,
      "inputs": [
        {
          "name": "_nationId",
          "type": "uint256"
        },
        {
          "name": "_decisionMakingProcess",
          "type": "string"
        },
        {
          "name": "_diplomaticRecognition",
          "type": "bool"
        },
        {
          "name": "_governanceService",
          "type": "string"
        },
        {
          "name": "_nonCitizenUse",
          "type": "bool"
        }
      ],
      "name": "SetNationGovernance",
      "outputs": [],
      "payable": false,
      "stateMutability": "nonpayable",
      "type": "function"
    },
    {
      "constant": false,
      "inputs": [
        {
          "name": "_nationId",
          "type": "uint256"
        },
        {
          "name": "_nationCode",
          "type": "string"
        },
        {
          "name": "_nationCodeLink",
          "type": "string"
        },
        {
          "name": "_lawEnforcementMechanism",
          "type": "string"
        },
        {
          "name": "_profit",
          "type": "bool"
        }
      ],
      "name": "SetNationPolicy",
      "outputs": [],
      "payable": false,
      "stateMutability": "nonpayable",
      "type": "function"
    },
    {
      "constant": false,
      "inputs": [
        {
          "name": "_nationName",
          "type": "string"
        },
        {
          "name": "_nationDescription",
          "type": "string"
        },
        {
          "name": "_exists",
          "type": "bool"
        },
        {
          "name": "_virtualNation",
          "type": "bool"
        }
      ],
      "name": "createNationCore",
      "outputs": [],
      "payable": false,
      "stateMutability": "nonpayable",
      "type": "function"
    },
    {
      "constant": false,
      "inputs": [
        {
          "name": "_nationId",
          "type": "uint256"
        }
      ],
      "name": "leaveNation",
      "outputs": [],
      "payable": false,
      "stateMutability": "nonpayable",
      "type": "function"
    },
    {
      "constant": false,
      "inputs": [
        {
          "name": "_newNation",
          "type": "address"
        }
      ],
      "name": "upgradeNation",
      "outputs": [],
      "payable": false,
      "stateMutability": "nonpayable",
      "type": "function"
    },
    {
      "constant": true,
      "inputs": [
        {
          "name": "_nationId",
          "type": "uint256"
        }
      ],
      "name": "getNationName",
      "outputs": [
        {
          "name": "",
          "type": "string"
        }
      ],
      "payable": false,
      "stateMutability": "view",
      "type": "function"
    },
    {
      "constant": true,
      "inputs": [],
      "name": "NationCoreVersion",
      "outputs": [
        {
          "name": "",
          "type": "uint256"
        }
      ],
      "payable": false,
      "stateMutability": "view",
      "type": "function"
    },
    {
      "constant": true,
      "inputs": [],
      "name": "getInitializationBlock",
      "outputs": [
        {
          "name": "",
          "type": "uint256"
        }
      ],
      "payable": false,
      "stateMutability": "view",
      "type": "function"
    },
    {
      "constant": true,
      "inputs": [],
      "name": "owner",
      "outputs": [
        {
          "name": "",
          "type": "address"
        }
      ],
      "payable": false,
      "stateMutability": "view",
      "type": "function"
    },
    {
      "constant": true,
      "inputs": [
        {
          "name": "_nationId",
          "type": "uint256"
        }
      ],
      "name": "getNationPolicy",
      "outputs": [
        {
          "name": "_nationCode",
          "type": "string"
        },
        {
          "name": "_nationCodeLink",
          "type": "string"
        },
        {
          "name": "_lawEnforcementMechanism",
          "type": "string"
        },
        {
          "name": "_profit",
          "type": "bool"
        }
      ],
      "payable": false,
      "stateMutability": "view",
      "type": "function"
    },
    {
      "constant": false,
      "inputs": [
        {
          "name": "_newOwner",
          "type": "address"
        }
      ],
      "name": "changeOwner",
      "outputs": [],
      "payable": false,
      "stateMutability": "nonpayable",
      "type": "function"
    },
    {
      "constant": true,
      "inputs": [
        {
          "name": "_nationId",
          "type": "uint256"
        }
      ],
      "name": "getNationCore",
      "outputs": [
        {
          "name": "_nationName",
          "type": "string"
        },
        {
          "name": "_nationDescription",
          "type": "string"
        },
        {
          "name": "_exists",
          "type": "bool"
        },
        {
          "name": "_virtualNation",
          "type": "bool"
        },
        {
          "name": "_founder",
          "type": "address"
        }
      ],
      "payable": false,
      "stateMutability": "view",
      "type": "function"
    },
    {
      "constant": true,
      "inputs": [],
      "name": "nationImpl",
      "outputs": [
        {
          "name": "",
          "type": "address"
        }
      ],
      "payable": false,
      "stateMutability": "view",
      "type": "function"
    },
    {
      "constant": true,
      "inputs": [
        {
          "name": "_founder",
          "type": "address"
        }
      ],
      "name": "getFoundedNations",
      "outputs": [
        {
          "name": "",
          "type": "uint256[]"
        }
      ],
      "payable": false,
      "stateMutability": "view",
      "type": "function"
    },
    {
      "constant": false,
      "inputs": [
        {
          "name": "_owner",
          "type": "address"
        }
      ],
      "name": "initialize",
      "outputs": [],
      "payable": false,
      "stateMutability": "nonpayable",
      "type": "function"
    },
    {
      "constant": true,
      "inputs": [
        {
          "name": "_nationId",
          "type": "uint256"
        }
      ],
      "name": "getNumCitizens",
      "outputs": [
        {
          "name": "",
          "type": "uint256"
        }
      ],
      "payable": false,
      "stateMutability": "view",
      "type": "function"
    },
    {
      "inputs": [],
      "payable": false,
      "stateMutability": "nonpayable",
      "type": "constructor"
    },
    {
      "anonymous": false,
      "inputs": [
        {
          "indexed": true,
          "name": "newNation",
          "type": "address"
        }
      ],
      "name": "UpgradeNation",
      "type": "event"
    },
    {
      "anonymous": false,
      "inputs": [
        {
          "indexed": true,
          "name": "newOwner",
          "type": "address"
        }
      ],
      "name": "OwnerChanged",
      "type": "event"
    },
    {
      "anonymous": false,
      "inputs": [
        {
          "indexed": true,
          "name": "founder",
          "type": "address"
        },
        {
          "indexed": false,
          "name": "nationName",
          "type": "string"
        },
        {
          "indexed": true,
          "name": "nationId",
          "type": "uint256"
        }
      ],
      "name": "NationCoreCreated",
      "type": "event"
    },
    {
      "anonymous": false,
      "inputs": [
        {
          "indexed": false,
          "name": "nationName",
          "type": "string"
        },
        {
          "indexed": true,
          "name": "nationId",
          "type": "uint256"
        }
      ],
      "name": "NationPolicySet",
      "type": "event"
    },
    {
      "anonymous": false,
      "inputs": [
        {
          "indexed": false,
          "name": "nationName",
          "type": "string"
        },
        {
          "indexed": true,
          "name": "nationId",
          "type": "uint256"
        }
      ],
      "name": "NationGovernanceSet",
      "type": "event"
    },
    {
      "anonymous": false,
      "inputs": [
        {
          "indexed": true,
          "name": "nationId",
          "type": "uint256"
        },
        {
          "indexed": false,
          "name": "citizenAddress",
          "type": "address"
        }
      ],
      "name": "CitizenJoined",
      "type": "event"
    },
    {
      "anonymous": false,
      "inputs": [
        {
          "indexed": true,
          "name": "nationId",
          "type": "uint256"
        },
        {
          "indexed": false,
          "name": "citizenAddress",
          "type": "address"
        }
      ],
      "name": "CitizenLeft",
      "type": "event"
    }
  ],
  "bytecode": "0x6060604052341561000f57600080fd5b60016009819055506123b4806100266000396000f300606060405260043610610112576000357c0100000000000000000000000000000000000000000000000000000000900463ffffffff1680630a125d75146101175780630a1f4d101461013a57806329fbb0b7146101635780632e7711a2146101bd57806339767bf4146102db57806339a0fa131461039a57806355bf3f641461049157806356263653146104e95780636bcdf6841461050c57806376d19b151461054557806388368171146105e15780638b3dd7491461060a5780638da5cb5b146106335780639553773514610688578063a6f9dae114610807578063af571c9c14610840578063bfb93db214610991578063c35fbfff146109e6578063c4d66de814610a74578063d1f00ad114610aad575b600080fd5b341561012257600080fd5b6101386004808035906020019091905050610ae4565b005b341561014557600080fd5b61014d610cb2565b6040518082815260200191505060405180910390f35b341561016e57600080fd5b6101a3600480803573ffffffffffffffffffffffffffffffffffffffff16906020019091908035906020019091905050610cb8565b604051808215151515815260200191505060405180910390f35b34156101c857600080fd5b6101de6004808035906020019091905050610d20565b6040518080602001851515151581526020018060200184151515158152602001838103835287818151815260200191508051906020019080838360005b8381101561023657808201518184015260208101905061021b565b50505050905090810190601f1680156102635780820380516001836020036101000a031916815260200191505b50838103825285818151815260200191508051906020019080838360005b8381101561029c578082015181840152602081019050610281565b50505050905090810190601f1680156102c95780820380516001836020036101000a031916815260200191505b50965050505050505060405180910390f35b34156102e657600080fd5b610398600480803590602001909190803590602001908201803590602001908080601f01602080910402602001604051908101604052809392919081815260200183838082843782019150505050505091908035151590602001909190803590602001908201803590602001908080601f016020809104026020016040519081016040528093929190818152602001838380828437820191505050505050919080351515906020019091905050610f05565b005b34156103a557600080fd5b61048f600480803590602001909190803590602001908201803590602001908080601f0160208091040260200160405190810160405280939291908181526020018383808284378201915050505050509190803590602001908201803590602001908080601f0160208091040260200160405190810160405280939291908181526020018383808284378201915050505050509190803590602001908201803590602001908080601f016020809104026020016040519081016040528093929190818152602001838380828437820191505050505050919080351515906020019091905050611167565b005b341561049c57600080fd5b6104e7600480803590602001908201803590602001919091929080359060200190820180359060200191909192908035151590602001909190803515159060200190919050506113c4565b005b34156104f457600080fd5b61050a6004808035906020019091905050611679565b005b341561051757600080fd5b610543600480803573ffffffffffffffffffffffffffffffffffffffff16906020019091905050611848565b005b341561055057600080fd5b610566600480803590602001909190505061192a565b6040518080602001828103825283818151815260200191508051906020019080838360005b838110156105a657808201518184015260208101905061058b565b50505050905090810190601f1680156105d35780820380516001836020036101000a031916815260200191505b509250505060405180910390f35b34156105ec57600080fd5b6105f46119e5565b6040518082815260200191505060405180910390f35b341561061557600080fd5b61061d6119eb565b6040518082815260200191505060405180910390f35b341561063e57600080fd5b6106466119f5565b604051808273ffffffffffffffffffffffffffffffffffffffff1673ffffffffffffffffffffffffffffffffffffffff16815260200191505060405180910390f35b341561069357600080fd5b6106a96004808035906020019091905050611a1b565b6040518080602001806020018060200185151515158152602001848103845288818151815260200191508051906020019080838360005b838110156106fb5780820151818401526020810190506106e0565b50505050905090810190601f1680156107285780820380516001836020036101000a031916815260200191505b50848103835287818151815260200191508051906020019080838360005b83811015610761578082015181840152602081019050610746565b50505050905090810190601f16801561078e5780820380516001836020036101000a031916815260200191505b50848103825286818151815260200191508051906020019080838360005b838110156107c75780820151818401526020810190506107ac565b50505050905090810190601f1680156107f45780820380516001836020036101000a031916815260200191505b5097505050505050505060405180910390f35b341561081257600080fd5b61083e600480803573ffffffffffffffffffffffffffffffffffffffff16906020019091905050611c8d565b005b341561084b57600080fd5b6108616004808035906020019091905050611d70565b60405180806020018060200186151515158152602001851515151581526020018473ffffffffffffffffffffffffffffffffffffffff1673ffffffffffffffffffffffffffffffffffffffff168152602001838103835288818151815260200191508051906020019080838360005b838110156108eb5780820151818401526020810190506108d0565b50505050905090810190601f1680156109185780820380516001836020036101000a031916815260200191505b50838103825287818151815260200191508051906020019080838360005b83811015610951578082015181840152602081019050610936565b50505050905090810190601f16801561097e5780820380516001836020036101000a031916815260200191505b5097505050505050505060405180910390f35b341561099c57600080fd5b6109a4611fb5565b604051808273ffffffffffffffffffffffffffffffffffffffff1673ffffffffffffffffffffffffffffffffffffffff16815260200191505060405180910390f35b34156109f157600080fd5b610a1d600480803573ffffffffffffffffffffffffffffffffffffffff16906020019091905050611fda565b6040518080602001828103825283818151815260200191508051906020019060200280838360005b83811015610a60578082015181840152602081019050610a45565b505050509050019250505060405180910390f35b3415610a7f57600080fd5b610aab600480803573ffffffffffffffffffffffffffffffffffffffff16906020019091905050612077565b005b3415610ab857600080fd5b610ace60048080359060200190919050506120d4565b6040518082815260200191505060405180910390f35b600081111515610af357600080fd5b60006004600083815260200190815260200160002060000154111515610b1857600080fd5b600015156002600083815260200190815260200160002060003373ffffffffffffffffffffffffffffffffffffffff1673ffffffffffffffffffffffffffffffffffffffff16815260200190815260200160002060009054906101000a900460ff161515141515610b8857600080fd5b60036000828152602001908152602001600020546001600360008481526020019081526020016000205401111515610bbf57600080fd5b60016002600083815260200190815260200160002060003373ffffffffffffffffffffffffffffffffffffffff1673ffffffffffffffffffffffffffffffffffffffff16815260200190815260200160002060006101000a81548160ff0219169083151502179055506003600082815260200190815260200160002060008154809291906001019190505550807fb4f10b2e9584a07f254934f59aec4ae9c6658a1e7b0b53b0f71353d8659a123033604051808273ffffffffffffffffffffffffffffffffffffffff1673ffffffffffffffffffffffffffffffffffffffff16815260200191505060405180910390a250565b600a5481565b60006002600083815260200190815260200160002060008473ffffffffffffffffffffffffffffffffffffffff1673ffffffffffffffffffffffffffffffffffffffff16815260200190815260200160002060009054906101000a900460ff16905092915050565b610d2861211a565b6000610d3261211a565b6000610d3c61212e565b6006600087815260200190815260200160002060a06040519081016040529081600082015481526020016001820160009054906101000a900460ff161515151581526020016001820160019054906101000a900460ff16151515158152602001600282018054600181600116156101000203166002900480601f016020809104026020016040519081016040528092919081815260200182805460018160011615610100020316600290048015610e345780601f10610e0957610100808354040283529160200191610e34565b820191906000526020600020905b815481529060010190602001808311610e1757829003601f168201915b50505050508152602001600382018054600181600116156101000203166002900480601f016020809104026020016040519081016040528092919081815260200182805460018160011615610100020316600290048015610ed65780601f10610eab57610100808354040283529160200191610ed6565b820191906000526020600020905b815481529060010190602001808311610eb957829003601f168201915b505050505081525050905080606001519450806040015193508060800151925080602001519150509193509193565b600085111515610f1457600080fd5b60006004600087815260200190815260200160002060000154111515610f3957600080fd5b3373ffffffffffffffffffffffffffffffffffffffff166004600087815260200190815260200160002060030160029054906101000a900473ffffffffffffffffffffffffffffffffffffffff1673ffffffffffffffffffffffffffffffffffffffff16141515610fa957600080fd5b60006006600087815260200190815260200160002060000154141515610fce57600080fd5b60a0604051908101604052808681526020018215158152602001841515815260200185815260200183815250600660008781526020019081526020016000206000820151816000015560208201518160010160006101000a81548160ff02191690831515021790555060408201518160010160016101000a81548160ff021916908315150217905550606082015181600201908051906020019061107392919061216e565b50608082015181600301908051906020019061109092919061216e565b50905050847f6527c7811937c0d36a1c7ed09ee09f0301707e6c8206bc5fdcd9783c273b16136007600088815260200190815260200160002060405180806020018281038252838181546001816001161561010002031660029004815260200191508054600181600116156101000203166002900480156111525780601f1061112757610100808354040283529160200191611152565b820191906000526020600020905b81548152906001019060200180831161113557829003601f168201915b50509250505060405180910390a25050505050565b60008511151561117657600080fd5b6000600460008781526020019081526020016000206000015411151561119b57600080fd5b3373ffffffffffffffffffffffffffffffffffffffff166004600087815260200190815260200160002060030160029054906101000a900473ffffffffffffffffffffffffffffffffffffffff1673ffffffffffffffffffffffffffffffffffffffff1614151561120b57600080fd5b6000600560008781526020019081526020016000206000015414151561123057600080fd5b60a0604051908101604052808681526020018581526020018481526020018381526020018215158152506005600087815260200190815260200160002060008201518160000155602082015181600101908051906020019061129392919061216e565b5060408201518160020190805190602001906112b092919061216e565b5060608201518160030190805190602001906112cd92919061216e565b5060808201518160040160006101000a81548160ff021916908315150217905550905050847fbe336953dad1ce18b0d2890654f1f618732b99f75fa129ffcbd185dc8e28f4bb6007600088815260200190815260200160002060405180806020018281038252838181546001816001161561010002031660029004815260200191508054600181600116156101000203166002900480156113af5780601f10611384576101008083540402835291602001916113af565b820191906000526020600020905b81548152906001019060200180831161139257829003601f168201915b50509250505060405180910390a25050505050565b6000868690501115156113d657600080fd5b600a6000815480929190600101919050555060c060405190810160405280600a54815260200187878080601f016020809104026020016040519081016040528093929190818152602001838380828437820191505050505050815260200185858080601f0160208091040260200160405190810160405280939291908181526020018383808284378201915050505050508152602001831515815260200182151581526020013373ffffffffffffffffffffffffffffffffffffffff1681525060046000600a5481526020019081526020016000206000820151816000015560208201518160010190805190602001906114d192919061216e565b5060408201518160020190805190602001906114ee92919061216e565b5060608201518160030160006101000a81548160ff02191690831515021790555060808201518160030160016101000a81548160ff02191690831515021790555060a08201518160030160026101000a81548173ffffffffffffffffffffffffffffffffffffffff021916908373ffffffffffffffffffffffffffffffffffffffff160217905550905050858560076000600a548152602001908152602001600020919061159d9291906121ee565b50600860003373ffffffffffffffffffffffffffffffffffffffff1673ffffffffffffffffffffffffffffffffffffffff16815260200190815260200160002080548060010182816115ef919061226e565b91600052602060002090016000600a5490919091505550600a543373ffffffffffffffffffffffffffffffffffffffff167ff85ec53934238930be869031fd5e58ef5d2ff5b959f41836e3d84f5660031de98888604051808060200182810382528484828181526020019250808284378201915050935050505060405180910390a3505050505050565b60008111151561168857600080fd5b600060046000838152602001908152602001600020600001541115156116ad57600080fd5b600115156002600083815260200190815260200160002060003373ffffffffffffffffffffffffffffffffffffffff1673ffffffffffffffffffffffffffffffffffffffff16815260200190815260200160002060009054906101000a900460ff16151514151561171d57600080fd5b6003600082815260200190815260200160002054600160036000848152602001908152602001600020540310151561175457600080fd5b60006002600083815260200190815260200160002060003373ffffffffffffffffffffffffffffffffffffffff1673ffffffffffffffffffffffffffffffffffffffff16815260200190815260200160002060006101000a81548160ff021916908315150217905550600360008281526020019081526020016000206000815480929190600190039190505550807f52a35a8da1a8d5fddf3ef727810dd7f7d090a501e8e7bd1f6140447294f1550333604051808273ffffffffffffffffffffffffffffffffffffffff1673ffffffffffffffffffffffffffffffffffffffff16815260200191505060405180910390a250565b600b60009054906101000a900473ffffffffffffffffffffffffffffffffffffffff1673ffffffffffffffffffffffffffffffffffffffff163373ffffffffffffffffffffffffffffffffffffffff161415156118a457600080fd5b806000806101000a81548173ffffffffffffffffffffffffffffffffffffffff021916908373ffffffffffffffffffffffffffffffffffffffff1602179055508073ffffffffffffffffffffffffffffffffffffffff167f96dc278a09010354092c3b2beee61cbd40382700783ba6889beb923b4c9f099e60405160405180910390a250565b61193261211a565b600760008381526020019081526020016000208054600181600116156101000203166002900480601f0160208091040260200160405190810160405280929190818152602001828054600181600116156101000203166002900480156119d95780601f106119ae576101008083540402835291602001916119d9565b820191906000526020600020905b8154815290600101906020018083116119bc57829003601f168201915b50505050509050919050565b60095481565b6000600154905090565b600b60009054906101000a900473ffffffffffffffffffffffffffffffffffffffff1681565b611a2361211a565b611a2b61211a565b611a3361211a565b6000611a3d61229a565b6005600087815260200190815260200160002060a0604051908101604052908160008201548152602001600182018054600181600116156101000203166002900480601f016020809104026020016040519081016040528092919081815260200182805460018160011615610100020316600290048015611aff5780601f10611ad457610100808354040283529160200191611aff565b820191906000526020600020905b815481529060010190602001808311611ae257829003601f168201915b50505050508152602001600282018054600181600116156101000203166002900480601f016020809104026020016040519081016040528092919081815260200182805460018160011615610100020316600290048015611ba15780601f10611b7657610100808354040283529160200191611ba1565b820191906000526020600020905b815481529060010190602001808311611b8457829003601f168201915b50505050508152602001600382018054600181600116156101000203166002900480601f016020809104026020016040519081016040528092919081815260200182805460018160011615610100020316600290048015611c435780601f10611c1857610100808354040283529160200191611c43565b820191906000526020600020905b815481529060010190602001808311611c2657829003601f168201915b505050505081526020016004820160009054906101000a900460ff161515151581525050905080602001519450806040015193508060600151925080608001519150509193509193565b600b60009054906101000a900473ffffffffffffffffffffffffffffffffffffffff1673ffffffffffffffffffffffffffffffffffffffff163373ffffffffffffffffffffffffffffffffffffffff16141515611ce957600080fd5b80600b60006101000a81548173ffffffffffffffffffffffffffffffffffffffff021916908373ffffffffffffffffffffffffffffffffffffffff1602179055508073ffffffffffffffffffffffffffffffffffffffff167fa2ea9883a321a3e97b8266c2b078bfeec6d50c711ed71f874a90d500ae2eaf3660405160405180910390a250565b611d7861211a565b611d8061211a565b6000806000611d8d6122de565b6004600088815260200190815260200160002060c0604051908101604052908160008201548152602001600182018054600181600116156101000203166002900480601f016020809104026020016040519081016040528092919081815260200182805460018160011615610100020316600290048015611e4f5780601f10611e2457610100808354040283529160200191611e4f565b820191906000526020600020905b815481529060010190602001808311611e3257829003601f168201915b50505050508152602001600282018054600181600116156101000203166002900480601f016020809104026020016040519081016040528092919081815260200182805460018160011615610100020316600290048015611ef15780601f10611ec657610100808354040283529160200191611ef1565b820191906000526020600020905b815481529060010190602001808311611ed457829003601f168201915b505050505081526020016003820160009054906101000a900460ff161515151581526020016003820160019054906101000a900460ff161515151581526020016003820160029054906101000a900473ffffffffffffffffffffffffffffffffffffffff1673ffffffffffffffffffffffffffffffffffffffff1673ffffffffffffffffffffffffffffffffffffffff16815250509050806020015195508060400151945080606001519350806080015192508060a0015191505091939590929450565b6000809054906101000a900473ffffffffffffffffffffffffffffffffffffffff1681565b611fe261233b565b600860008373ffffffffffffffffffffffffffffffffffffffff1673ffffffffffffffffffffffffffffffffffffffff16815260200190815260200160002080548060200260200160405190810160405280929190818152602001828054801561206b57602002820191906000526020600020905b815481526020019060010190808311612057575b50505050509050919050565b600060015414151561208857600080fd5b6120906120f1565b80600b60006101000a81548173ffffffffffffffffffffffffffffffffffffffff021916908373ffffffffffffffffffffffffffffffffffffffff16021790555050565b600060036000838152602001908152602001600020549050919050565b600060015414151561210257600080fd5b61210a612112565b600181905550565b600043905090565b602060405190810160405280600081525090565b60a0604051908101604052806000815260200160001515815260200160001515815260200161215b61234f565b815260200161216861234f565b81525090565b828054600181600116156101000203166002900490600052602060002090601f016020900481019282601f106121af57805160ff19168380011785556121dd565b828001600101855582156121dd579182015b828111156121dc5782518255916020019190600101906121c1565b5b5090506121ea9190612363565b5090565b828054600181600116156101000203166002900490600052602060002090601f016020900481019282601f1061222f57803560ff191683800117855561225d565b8280016001018555821561225d579182015b8281111561225c578235825591602001919060010190612241565b5b50905061226a9190612363565b5090565b815481835581811511612295578183600052602060002091820191016122949190612363565b5b505050565b60a060405190810160405280600081526020016122b561234f565b81526020016122c261234f565b81526020016122cf61234f565b81526020016000151581525090565b60c060405190810160405280600081526020016122f961234f565b815260200161230661234f565b8152602001600015158152602001600015158152602001600073ffffffffffffffffffffffffffffffffffffffff1681525090565b602060405190810160405280600081525090565b602060405190810160405280600081525090565b61238591905b80821115612381576000816000905550600101612369565b5090565b905600a165627a7a72305820c41a92292fdbeb908d61011510214bd44c102f2b97741e87c0c4ea9f980ad9ac0029",
  "source": "pragma solidity ^0.4.18;\n\nimport \"./NationStorage.sol\";\nimport \"../common/Initializable.sol\";\n\n/**\n * @title Nation\n * @dev Base Nation contract that acts as a nation registry for BitNation\n * Upgrade by calling nationImplementation.upgradeNation(upgradedImplementation.address)\n */\ncontract Nation is NationStorage, Initializable {\n\n    struct NationCore {\n\n        uint nationId;\n        string nationName;\n        string nationDescription;\n\n        bool exists;\n        bool virtualNation;\n        address founder;\n\n    }\n\n    struct NationPolicy {\n\n        uint nationId;\n        string nationCode;\n        string nationCodeLink;\n        string lawEnforcementMechanism;\n        bool profit;\n\n    }\n\n    struct NationGovernance {\n\n        uint nationId;\n        bool nonCitizenUse;\n        bool diplomaticRecognition;\n        string decisionMakingProcess;\n        string governanceService;\n\n    }\n\n    // Mapping for nationId => mapping of address to true if citizen exists\n    mapping (uint => mapping (address => bool)) citizensMapping;\n    // Mapping for nationId => numCitizens\n    mapping (uint => uint) numCitizensMapping;\n\n    // @dev mappings for nation id => nation properties\n    mapping (uint => NationCore) nationCoreMapping;\n    mapping (uint => NationPolicy) nationPolicyMapping;\n    mapping (uint => NationGovernance) nationGovernanceMapping;\n    mapping (uint => string) nationIds;\n    mapping (address => uint[]) foundedNations;\n\n    // @dev keep track of the contract properties\n    uint public NationCoreVersion;\n    uint public numNations;\n    address public owner;\n\n\n    // EVENTS\n\n    // logged events:\n    // The nations contract has been upgraded (!IMPORTANT)\n    event UpgradeNation(address indexed newNation);\n    // Event for changing the owner of this contract\n    event OwnerChanged(address indexed newOwner);\n    // Events for when a nation's properties have been altered/created\n    event NationCoreCreated(address indexed founder, string nationName, uint indexed nationId);\n    event NationPolicySet(string nationName, uint indexed nationId);\n    event NationGovernanceSet(string nationName, uint indexed nationId);\n    // Events for citizens\n    event CitizenJoined(uint indexed nationId, address citizenAddress);\n    event CitizenLeft(uint indexed nationId, address citizenAddress);\n\n    // Constructor for the nations contract. Sets the nations version as 1\n    function Nation() public {\n        NationCoreVersion = 1;\n    }\n\n    /**\n     * @dev Initialize the Nation contract after it has been deployed.\n     * @param _owner address representing the owner that can upgrade this contract.\n     */\n    function initialize(address _owner) onlyInit public {\n        initialized();\n        owner = _owner;\n    }\n\n    /**\n    * @dev Changes the owner of this contract\n    * @param _newOwner Address for new owner\n    */\n    function changeOwner(address _newOwner) external {\n        require(msg.sender == owner);\n        owner = _newOwner;\n        OwnerChanged(_newOwner);\n    }\n\n    /**\n     * @dev Get a nation's name using the nation id\n     * @param _nationId uint the id of the nation that you want the name of.\n     * @return An string that is the nation name.\n     */\n    function getNationName(uint _nationId) public constant returns (string) {\n        return nationIds[_nationId];\n    }\n\n    /**\n     * @dev Get a nation's core properties using the nation id\n     * @param _nationId uint the id of the nation that you want the properties of.\n     * @return A NationCore that corresponds to the nation id.\n     */\n    function getNationCore(uint _nationId) public constant returns (\n        string _nationName,\n        string _nationDescription,\n        bool _exists,\n        bool _virtualNation,\n        address _founder\n    ){\n\n        NationCore memory nationCore = nationCoreMapping[_nationId];\n\n        _nationName = nationCore.nationName;\n        _nationDescription = nationCore.nationDescription;\n        _exists = nationCore.exists;\n        _virtualNation = nationCore.virtualNation;\n        _founder = nationCore.founder;\n\n    }\n\n    /**\n     * @dev Get a nation's policies using the nation id\n     * @param _nationId uint the id of the nation that you want the policies of.\n     * @return A NationPolicy that corresponds to the nation id.\n     */\n    function getNationPolicy(uint _nationId) public constant returns (\n        string _nationCode,\n        string _nationCodeLink,\n        string _lawEnforcementMechanism,\n        bool _profit\n    ) {\n\n        NationPolicy memory nationPolicy = nationPolicyMapping[_nationId];\n\n        _nationCode = nationPolicy.nationCode;\n        _nationCodeLink = nationPolicy.nationCodeLink;\n        _lawEnforcementMechanism = nationPolicy.lawEnforcementMechanism;\n        _profit = nationPolicy.profit;\n\n    }\n\n    /**\n     * @dev Get a nation's governance model using the nation id\n     * @param _nationId uint the id of the nation that you want the governance model of.\n     * @return A NationGovernance that corresponds to the nation id.\n     */\n    function getNationGovernance(uint _nationId) public constant returns (\n        string _decisionMakingProcess,\n        bool _diplomaticRecognition,\n        string _governanceService,\n        bool _nonCitizenUse\n    ) {\n\n        NationGovernance memory nationGovernance = nationGovernanceMapping[_nationId];\n\n        _decisionMakingProcess = nationGovernance.decisionMakingProcess;\n        _diplomaticRecognition = nationGovernance.diplomaticRecognition;\n        _governanceService = nationGovernance.governanceService;\n        _nonCitizenUse = nationGovernance.nonCitizenUse;\n    }\n\n    /**\n     * @dev Create a nation by providing the core properties of that nation.\n     * Additional properties (policies, governance) can be set at a later time.\n     * @param _nationName string the name of the nation.\n     * @param _nationDescription string the description of the nation.\n     * @param _exists bool whether the nation is a real one or not.\n     * @param _virtualNation bool if the nation is a virtual one.\n     */\n    function createNationCore(string _nationName, string _nationDescription, bool _exists, bool _virtualNation) external {\n\n        require(bytes(_nationName).length > 0);\n\n        numNations++;\n\n        nationCoreMapping[numNations] = NationCore({\n            nationId: numNations,\n            nationName: _nationName,\n            nationDescription: _nationDescription,\n            exists: _exists,\n            virtualNation: _virtualNation,\n            founder: msg.sender\n        });\n\n        nationIds[numNations] = _nationName;\n\n        foundedNations[msg.sender].push(numNations);\n\n        NationCoreCreated(msg.sender, _nationName, numNations);\n\n    }\n\n    /**\n     * @dev Set a nation's policies. Can only be set by the original founder of the nation.\n     * @param _nationId uint the id of the nation.\n     */\n    function SetNationPolicy (\n        uint _nationId,\n        string _nationCode,\n        string _nationCodeLink,\n        string _lawEnforcementMechanism,\n        bool _profit\n    ) public {\n\n        require(_nationId > 0);\n        require(nationCoreMapping[_nationId].nationId > 0);\n        require(nationCoreMapping[_nationId].founder == msg.sender);\n        // ensures that the policy can only be set once\n        require(nationPolicyMapping[_nationId].nationId == 0);\n\n        nationPolicyMapping[_nationId] = NationPolicy({\n            nationId: _nationId,\n            nationCode: _nationCode,\n            nationCodeLink: _nationCodeLink,\n            lawEnforcementMechanism: _lawEnforcementMechanism,\n            profit: _profit\n        });\n\n        NationPolicySet(nationIds[_nationId], _nationId);\n\n    }\n\n    /**\n     * @dev Set a nation's governance model. Can only be set by the original founder of the nation.\n     * @param _nationId uint the id of the nation.\n     */\n    function SetNationGovernance (\n        uint _nationId,\n        string _decisionMakingProcess,\n        bool _diplomaticRecognition,\n        string _governanceService,\n        bool _nonCitizenUse\n    ) public {\n        require(_nationId > 0);\n        require(nationCoreMapping[_nationId].nationId > 0);\n        require(nationCoreMapping[_nationId].founder == msg.sender);\n        // Ensures that the governance can only be set once\n        require(nationGovernanceMapping[_nationId].nationId == 0);\n\n        nationGovernanceMapping[_nationId] = NationGovernance({\n            nationId: _nationId,\n            decisionMakingProcess: _decisionMakingProcess,\n            diplomaticRecognition: _diplomaticRecognition,\n            governanceService: _governanceService,\n            nonCitizenUse: _nonCitizenUse\n        });\n\n        NationGovernanceSet(nationIds[_nationId], _nationId);\n    }\n\n    /**\n    * @dev Changes nation implementation reference to a new address\n    * @notice Upgrade nation to new implementation at address `_newNation` (CRITICAL!)\n    * @param _newNation Address for new nation code\n    */\n    function upgradeNation(address _newNation) external {\n        require(msg.sender == owner);\n        nationImpl = _newNation;\n        UpgradeNation(_newNation);\n    }\n\n    /**\n    * @dev Adds a user to a nation's citizen registry\n    * @param _nationId id of the nation that the citizen wants to join\n    */\n    function joinNation(uint _nationId) public {\n        // Make sure the nation exists first\n        require(_nationId > 0);\n        require(nationCoreMapping[_nationId].nationId > 0);\n        // Make sure the user is not already part of the nation\n        require(citizensMapping[_nationId][msg.sender] == false);\n        // overflow check\n        require(numCitizensMapping[_nationId] + 1 > numCitizensMapping[_nationId]);\n\n        citizensMapping[_nationId][msg.sender] = true;\n        numCitizensMapping[_nationId]++;\n\n        CitizenJoined(_nationId, msg.sender);\n    }\n\n    /**\n    * @dev Removes a user from a nation's citizen registry\n    * @param _nationId id of the nation that the citizen wants to leave\n    */\n    function leaveNation(uint _nationId) public {\n        // Make sure the nation exists first\n        require(_nationId > 0);\n        require(nationCoreMapping[_nationId].nationId > 0);\n        // Must be already in the nation\n        require(citizensMapping[_nationId][msg.sender] == true);\n        // overflow check\n        require(numCitizensMapping[_nationId] - 1 < numCitizensMapping[_nationId]);\n\n        citizensMapping[_nationId][msg.sender] = false;\n        numCitizensMapping[_nationId]--;\n\n        CitizenLeft(_nationId, msg.sender);\n    }\n\n    /**\n    * @dev Checks to see if an address is a member of a nation\n    * @param _citizenAddress address of the citizen you want to check\n    * @param _nationId id of the nation that is being checked\n    */\n    function checkCitizen(address _citizenAddress, uint _nationId) public constant returns (bool) {\n        return citizensMapping[_nationId][_citizenAddress];\n    }\n\n    /**\n    * @dev Checks the number of citizens in a nation\n    * @param _nationId id of the nation that is being checked\n    */\n    function getNumCitizens(uint _nationId) public constant returns (uint) {\n        return numCitizensMapping[_nationId];\n    }\n\n    /**\n    * @dev Gets an array of the nation ids that a founder has created\n    * @param _founder address of the founder that is being searched\n    */\n    function getFoundedNations(address _founder) public constant returns (uint[]) {\n        return foundedNations[_founder];\n    }\n\n}\n\n\n\n",
  "sourcePath": "/Users/WilliamHuang/Developer/Job-Development/BitNation/nation-framework/contracts/nation/Nation.sol",
  "compiler": {
    "name": "solc",
    "version": "0.4.18+commit.9cf6e910.Emscripten.clang"
  },
  "schemaVersion": "1.0.1",
  "updatedAt": "2018-01-19T15:43:31.089Z"
}