{
  "contractName": "Nation",
  "abi": [
    {
      "constant": false,
      "inputs": [
        {
          "name": "_nationId",
          "type": "uint256"
        }
      ],
      "name": "joinNation",
      "outputs": [],
      "payable": false,
      "stateMutability": "nonpayable",
      "type": "function"
    },
    {
      "constant": true,
      "inputs": [],
      "name": "numNations",
      "outputs": [
        {
          "name": "",
          "type": "uint256"
        }
      ],
      "payable": false,
      "stateMutability": "view",
      "type": "function"
    },
    {
      "constant": true,
      "inputs": [
        {
          "name": "_nationId",
          "type": "uint256"
        }
      ],
      "name": "getNationMetaData",
      "outputs": [
        {
          "name": "",
          "type": "string"
        }
      ],
      "payable": false,
      "stateMutability": "view",
      "type": "function"
    },
    {
      "constant": false,
      "inputs": [
        {
          "name": "_metaData",
          "type": "string"
        }
      ],
      "name": "createNation",
      "outputs": [],
      "payable": false,
      "stateMutability": "nonpayable",
      "type": "function"
    },
    {
      "constant": true,
      "inputs": [
        {
          "name": "_citizenAddress",
          "type": "address"
        },
        {
          "name": "_nationId",
          "type": "uint256"
        }
      ],
      "name": "checkCitizen",
      "outputs": [
        {
          "name": "",
          "type": "bool"
        }
      ],
      "payable": false,
      "stateMutability": "view",
      "type": "function"
    },
    {
      "constant": false,
      "inputs": [
        {
          "name": "_nationId",
          "type": "uint256"
        }
      ],
      "name": "leaveNation",
      "outputs": [],
      "payable": false,
      "stateMutability": "nonpayable",
      "type": "function"
    },
    {
      "constant": false,
      "inputs": [
        {
          "name": "_newNation",
          "type": "address"
        }
      ],
      "name": "upgradeNation",
      "outputs": [],
      "payable": false,
      "stateMutability": "nonpayable",
      "type": "function"
    },
    {
      "constant": true,
      "inputs": [],
      "name": "NationCoreVersion",
      "outputs": [
        {
          "name": "",
          "type": "uint256"
        }
      ],
      "payable": false,
      "stateMutability": "view",
      "type": "function"
    },
    {
      "constant": true,
      "inputs": [],
      "name": "getInitializationBlock",
      "outputs": [
        {
          "name": "",
          "type": "uint256"
        }
      ],
      "payable": false,
      "stateMutability": "view",
      "type": "function"
    },
    {
      "constant": true,
      "inputs": [],
      "name": "owner",
      "outputs": [
        {
          "name": "",
          "type": "address"
        }
      ],
      "payable": false,
      "stateMutability": "view",
      "type": "function"
    },
    {
      "constant": false,
      "inputs": [
        {
          "name": "_newOwner",
          "type": "address"
        }
      ],
      "name": "changeOwner",
      "outputs": [],
      "payable": false,
      "stateMutability": "nonpayable",
      "type": "function"
    },
    {
      "constant": true,
      "inputs": [],
      "name": "nationImpl",
      "outputs": [
        {
          "name": "",
          "type": "address"
        }
      ],
      "payable": false,
      "stateMutability": "view",
      "type": "function"
    },
    {
      "constant": true,
      "inputs": [],
      "name": "getJoinedNations",
      "outputs": [
        {
          "name": "",
          "type": "uint256[]"
        }
      ],
      "payable": false,
      "stateMutability": "view",
      "type": "function"
    },
    {
      "constant": true,
      "inputs": [
        {
          "name": "_founder",
          "type": "address"
        }
      ],
      "name": "getFoundedNations",
      "outputs": [
        {
          "name": "",
          "type": "uint256[]"
        }
      ],
      "payable": false,
      "stateMutability": "view",
      "type": "function"
    },
    {
      "constant": false,
      "inputs": [
        {
          "name": "_owner",
          "type": "address"
        }
      ],
      "name": "initialize",
      "outputs": [],
      "payable": false,
      "stateMutability": "nonpayable",
      "type": "function"
    },
    {
      "constant": true,
      "inputs": [
        {
          "name": "_nationId",
          "type": "uint256"
        }
      ],
      "name": "getNumCitizens",
      "outputs": [
        {
          "name": "",
          "type": "uint256"
        }
      ],
      "payable": false,
      "stateMutability": "view",
      "type": "function"
    },
    {
      "inputs": [],
      "payable": false,
      "stateMutability": "nonpayable",
      "type": "constructor"
    },
    {
      "anonymous": false,
      "inputs": [
        {
          "indexed": true,
          "name": "newNation",
          "type": "address"
        }
      ],
      "name": "UpgradeNation",
      "type": "event"
    },
    {
      "anonymous": false,
      "inputs": [
        {
          "indexed": true,
          "name": "newOwner",
          "type": "address"
        }
      ],
      "name": "OwnerChanged",
      "type": "event"
    },
    {
      "anonymous": false,
      "inputs": [
        {
          "indexed": true,
          "name": "founder",
          "type": "address"
        },
        {
          "indexed": true,
          "name": "nationId",
          "type": "uint256"
        }
      ],
      "name": "NationCreated",
      "type": "event"
    },
    {
      "anonymous": false,
      "inputs": [
        {
          "indexed": true,
          "name": "nationId",
          "type": "uint256"
        },
        {
          "indexed": false,
          "name": "citizenAddress",
          "type": "address"
        }
      ],
      "name": "CitizenJoined",
      "type": "event"
    },
    {
      "anonymous": false,
      "inputs": [
        {
          "indexed": true,
          "name": "nationId",
          "type": "uint256"
        },
        {
          "indexed": false,
          "name": "citizenAddress",
          "type": "address"
        }
      ],
      "name": "CitizenLeft",
      "type": "event"
    }
  ],
  "bytecode": "0x6060604052341561000f57600080fd5b6001600781905550611118806100266000396000f3006060604052600436106100e6576000357c0100000000000000000000000000000000000000000000000000000000900463ffffffff1680630a125d75146100eb5780630a1f4d101461010e578063182fe670146101375780632425681d146101d357806329fbb0b714610201578063562636531461025b5780636bcdf6841461027e57806388368171146102b75780638b3dd749146102e05780638da5cb5b14610309578063a6f9dae11461035e578063bfb93db214610397578063c105afc0146103ec578063c35fbfff14610456578063c4d66de8146104e4578063d1f00ad11461051d575b600080fd5b34156100f657600080fd5b61010c6004808035906020019091905050610554565b005b341561011957600080fd5b610121610799565b6040518082815260200191505060405180910390f35b341561014257600080fd5b610158600480803590602001909190505061079f565b6040518080602001828103825283818151815260200191508051906020019080838360005b8381101561019857808201518184015260208101905061017d565b50505050905090810190601f1680156101c55780820380516001836020036101000a031916815260200191505b509250505060405180910390f35b34156101de57600080fd5b6101ff6004808035906020019082018035906020019190919290505061085a565b005b341561020c57600080fd5b610241600480803573ffffffffffffffffffffffffffffffffffffffff16906020019091908035906020019091905050610955565b604051808215151515815260200191505060405180910390f35b341561026657600080fd5b61027c60048080359060200190919050506109bd565b005b341561028957600080fd5b6102b5600480803573ffffffffffffffffffffffffffffffffffffffff16906020019091905050610bf8565b005b34156102c257600080fd5b6102ca610cda565b6040518082815260200191505060405180910390f35b34156102eb57600080fd5b6102f3610ce0565b6040518082815260200191505060405180910390f35b341561031457600080fd5b61031c610cea565b604051808273ffffffffffffffffffffffffffffffffffffffff1673ffffffffffffffffffffffffffffffffffffffff16815260200191505060405180910390f35b341561036957600080fd5b610395600480803573ffffffffffffffffffffffffffffffffffffffff16906020019091905050610d10565b005b34156103a257600080fd5b6103aa610df3565b604051808273ffffffffffffffffffffffffffffffffffffffff1673ffffffffffffffffffffffffffffffffffffffff16815260200191505060405180910390f35b34156103f757600080fd5b6103ff610e18565b6040518080602001828103825283818151815260200191508051906020019060200280838360005b83811015610442578082015181840152602081019050610427565b505050509050019250505060405180910390f35b341561046157600080fd5b61048d600480803573ffffffffffffffffffffffffffffffffffffffff16906020019091905050610eb3565b6040518080602001828103825283818151815260200191508051906020019060200280838360005b838110156104d05780820151818401526020810190506104b5565b505050509050019250505060405180910390f35b34156104ef57600080fd5b61051b600480803573ffffffffffffffffffffffffffffffffffffffff16906020019091905050610f50565b005b341561052857600080fd5b61053e6004808035906020019091905050610fad565b6040518082815260200191505060405180910390f35b60008111151561056357600080fd5b60006004600083815260200190815260200160002080546001816001161561010002031660029004905011151561059957600080fd5b600015156002600083815260200190815260200160002060003373ffffffffffffffffffffffffffffffffffffffff1673ffffffffffffffffffffffffffffffffffffffff16815260200190815260200160002060009054906101000a900460ff16151514151561060957600080fd5b6003600082815260200190815260200160002054600160036000848152602001908152602001600020540111151561064057600080fd5b600660003373ffffffffffffffffffffffffffffffffffffffff1673ffffffffffffffffffffffffffffffffffffffff16815260200190815260200160002080548060010182816106919190610ff3565b91600052602060002090016000839091909150555060016002600083815260200190815260200160002060003373ffffffffffffffffffffffffffffffffffffffff1673ffffffffffffffffffffffffffffffffffffffff16815260200190815260200160002060006101000a81548160ff0219169083151502179055506003600082815260200190815260200160002060008154809291906001019190505550807fb4f10b2e9584a07f254934f59aec4ae9c6658a1e7b0b53b0f71353d8659a123033604051808273ffffffffffffffffffffffffffffffffffffffff1673ffffffffffffffffffffffffffffffffffffffff16815260200191505060405180910390a250565b60085481565b6107a761101f565b600460008381526020019081526020016000208054600181600116156101000203166002900480601f01602080910402602001604051908101604052809291908181526020018280546001816001161561010002031660029004801561084e5780601f106108235761010080835404028352916020019161084e565b820191906000526020600020905b81548152906001019060200180831161083157829003601f168201915b50505050509050919050565b60008282905011151561086c57600080fd5b600860008154809291906001019190505550818160046000600854815260200190815260200160002091906108a2929190611033565b50600560003373ffffffffffffffffffffffffffffffffffffffff1673ffffffffffffffffffffffffffffffffffffffff16815260200190815260200160002080548060010182816108f49190610ff3565b91600052602060002090016000600854909190915055506008543373ffffffffffffffffffffffffffffffffffffffff167f562630beb8244d7ec96e76e47e7a2fb8bad10514d9067249365bab6feb22bcf960405160405180910390a35050565b60006002600083815260200190815260200160002060008473ffffffffffffffffffffffffffffffffffffffff1673ffffffffffffffffffffffffffffffffffffffff16815260200190815260200160002060009054906101000a900460ff16905092915050565b6000811115156109cc57600080fd5b600060046000838152602001908152602001600020805460018160011615610100020316600290049050111515610a0257600080fd5b600115156002600083815260200190815260200160002060003373ffffffffffffffffffffffffffffffffffffffff1673ffffffffffffffffffffffffffffffffffffffff16815260200190815260200160002060009054906101000a900460ff161515141515610a7257600080fd5b60036000828152602001908152602001600020546001600360008481526020019081526020016000205403101515610aa957600080fd5b600660003373ffffffffffffffffffffffffffffffffffffffff1673ffffffffffffffffffffffffffffffffffffffff16815260200190815260200160002081815481101515610af557fe5b90600052602060002090016000905560006002600083815260200190815260200160002060003373ffffffffffffffffffffffffffffffffffffffff1673ffffffffffffffffffffffffffffffffffffffff16815260200190815260200160002060006101000a81548160ff021916908315150217905550600360008281526020019081526020016000206000815480929190600190039190505550807f52a35a8da1a8d5fddf3ef727810dd7f7d090a501e8e7bd1f6140447294f1550333604051808273ffffffffffffffffffffffffffffffffffffffff1673ffffffffffffffffffffffffffffffffffffffff16815260200191505060405180910390a250565b600960009054906101000a900473ffffffffffffffffffffffffffffffffffffffff1673ffffffffffffffffffffffffffffffffffffffff163373ffffffffffffffffffffffffffffffffffffffff16141515610c5457600080fd5b806000806101000a81548173ffffffffffffffffffffffffffffffffffffffff021916908373ffffffffffffffffffffffffffffffffffffffff1602179055508073ffffffffffffffffffffffffffffffffffffffff167f96dc278a09010354092c3b2beee61cbd40382700783ba6889beb923b4c9f099e60405160405180910390a250565b60075481565b6000600154905090565b600960009054906101000a900473ffffffffffffffffffffffffffffffffffffffff1681565b600960009054906101000a900473ffffffffffffffffffffffffffffffffffffffff1673ffffffffffffffffffffffffffffffffffffffff163373ffffffffffffffffffffffffffffffffffffffff16141515610d6c57600080fd5b80600960006101000a81548173ffffffffffffffffffffffffffffffffffffffff021916908373ffffffffffffffffffffffffffffffffffffffff1602179055508073ffffffffffffffffffffffffffffffffffffffff167fa2ea9883a321a3e97b8266c2b078bfeec6d50c711ed71f874a90d500ae2eaf3660405160405180910390a250565b6000809054906101000a900473ffffffffffffffffffffffffffffffffffffffff1681565b610e206110b3565b600660003373ffffffffffffffffffffffffffffffffffffffff1673ffffffffffffffffffffffffffffffffffffffff168152602001908152602001600020805480602002602001604051908101604052809291908181526020018280548015610ea957602002820191906000526020600020905b815481526020019060010190808311610e95575b5050505050905090565b610ebb6110b3565b600560008373ffffffffffffffffffffffffffffffffffffffff1673ffffffffffffffffffffffffffffffffffffffff168152602001908152602001600020805480602002602001604051908101604052809291908181526020018280548015610f4457602002820191906000526020600020905b815481526020019060010190808311610f30575b50505050509050919050565b6000600154141515610f6157600080fd5b610f69610fca565b80600960006101000a81548173ffffffffffffffffffffffffffffffffffffffff021916908373ffffffffffffffffffffffffffffffffffffffff16021790555050565b600060036000838152602001908152602001600020549050919050565b6000600154141515610fdb57600080fd5b610fe3610feb565b600181905550565b600043905090565b81548183558181151161101a5781836000526020600020918201910161101991906110c7565b5b505050565b602060405190810160405280600081525090565b828054600181600116156101000203166002900490600052602060002090601f016020900481019282601f1061107457803560ff19168380011785556110a2565b828001600101855582156110a2579182015b828111156110a1578235825591602001919060010190611086565b5b5090506110af91906110c7565b5090565b602060405190810160405280600081525090565b6110e991905b808211156110e55760008160009055506001016110cd565b5090565b905600a165627a7a723058203ddb2b5ecfe11113303a8d705af841894cc76359a1d69f352cf00191394195590029",
  "source": "pragma solidity ^0.4.18;\n\nimport \"./NationStorage.sol\";\nimport \"../common/Initializable.sol\";\n\n/**\n * @title Nation\n * @dev Base Nation contract that acts as a nation registry for BitNation\n * Upgrade by calling nationImplementation.upgradeNation(upgradedImplementation.address)\n */\ncontract Nation is NationStorage, Initializable {\n\n    // Mapping for nationId => mapping of address to true if citizen exists\n    mapping (uint => mapping (address => bool)) citizensMapping;\n    // Mapping for nationId => numCitizens\n    mapping (uint => uint) numCitizensMapping;\n\n    // Mapping for nation and metadata\n    mapping (uint => string) nationMetadata;\n    mapping (address => uint[]) foundedNations;\n    mapping (address => uint[]) joinedNations;\n\n    // @dev keep track of the contract properties\n    uint public NationCoreVersion;\n    uint public numNations;\n    address public owner;\n\n\n    // EVENTS\n\n    // logged events:\n    // The nations contract has been upgraded (!IMPORTANT)\n    event UpgradeNation(address indexed newNation);\n    // Event for changing the owner of this contract\n    event OwnerChanged(address indexed newOwner);\n    event NationCreated(address indexed founder, uint indexed nationId);\n    // Events for citizens\n    event CitizenJoined(uint indexed nationId, address citizenAddress);\n    event CitizenLeft(uint indexed nationId, address citizenAddress);\n\n    // Constructor for the nations contract. Sets the nations version as 1\n    function Nation() public {\n        NationCoreVersion = 1;\n    }\n\n    /**\n     * @dev Initialize the Nation contract after it has been deployed.\n     *  _owner address representing the owner that can upgrade this contract.\n     */\n    function initialize(address _owner) onlyInit public {\n        initialized();\n        owner = _owner;\n    }\n\n    /**\n    * @dev Changes the owner of this contract\n    *  _newOwner Address for new owner\n    */\n    function changeOwner(address _newOwner) external {\n        require(msg.sender == owner);\n        owner = _newOwner;\n        OwnerChanged(_newOwner);\n    }\n\n    function createNation(string _metaData) external {\n\n        require(bytes(_metaData).length > 0);\n\n        numNations++;\n\n        nationMetadata[numNations] = _metaData;\n\n        foundedNations[msg.sender].push(numNations);\n\n        NationCreated(msg.sender, numNations);\n\n    }\n\n    /**\n    * @dev Changes nation implementation reference to a new address\n    * @notice Upgrade nation to new implementation at address `_newNation` (CRITICAL!)\n    *  _newNation Address for new nation code\n    */\n    function upgradeNation(address _newNation) external {\n        require(msg.sender == owner);\n        nationImpl = _newNation;\n        UpgradeNation(_newNation);\n    }\n\n    /**\n    * @dev Adds a user to a nation's citizen registry\n    *  _nationId id of the nation that the citizen wants to join\n    */\n    function joinNation(uint _nationId) public {\n        // Make sure the nation exists first\n        require(_nationId > 0);\n        require(bytes(nationMetadata[_nationId]).length > 0);\n        // Make sure the user is not already part of the nation\n        require(citizensMapping[_nationId][msg.sender] == false);\n        // overflow check\n        require(numCitizensMapping[_nationId] + 1 > numCitizensMapping[_nationId]);\n\n        //Add nation to joined nations of address\n        joinedNations[msg.sender].push(_nationId);\n\n        citizensMapping[_nationId][msg.sender] = true;\n        numCitizensMapping[_nationId]++;\n\n        CitizenJoined(_nationId, msg.sender);\n    }\n\n    /**\n    * @dev Removes a user from a nation's citizen registry\n    *  _nationId id of the nation that the citizen wants to leave\n    */\n    function leaveNation(uint _nationId) public {\n        // Make sure the nation exists first\n        require(_nationId > 0);\n        require(bytes(nationMetadata[_nationId]).length > 0);\n        // Must be already in the nation\n        require(citizensMapping[_nationId][msg.sender] == true);\n        // overflow check\n        require(numCitizensMapping[_nationId] - 1 < numCitizensMapping[_nationId]);\n\n        //Remove nation from list of joined nation\n        delete joinedNations[msg.sender][_nationId];\n\n        citizensMapping[_nationId][msg.sender] = false;\n        numCitizensMapping[_nationId]--;\n\n        CitizenLeft(_nationId, msg.sender);\n    }\n\n    /**\n    * @dev Checks to see if an address is a member of a nation\n    *  _citizenAddress address of the citizen you want to check\n    *  _nationId id of the nation that is being checked\n    */\n    function checkCitizen(address _citizenAddress, uint _nationId) public constant returns (bool) {\n        return citizensMapping[_nationId][_citizenAddress];\n    }\n\n    /**\n    * @dev Checks the number of citizens in a nation\n    *  _nationId id of the nation that is being checked\n    */\n    function getNumCitizens(uint _nationId) public constant returns (uint) {\n        return numCitizensMapping[_nationId];\n    }\n\n    /**\n    * @dev Gets an array of the nation ids thaa founder has created\n    *  _founder address of the founder that is being searched\n    */\n    function getFoundedNations(address _founder) public constant returns (uint[]) {\n        return foundedNations[_founder];\n    }\n\n    /**\n    * @dev Return's the nation metadata\n    */\n    function getNationMetaData(uint _nationId) public constant returns (string) {\n        return nationMetadata[_nationId];\n    }\n\n    /**\n    * @dev Get list of joined nations\n    */\n    function getJoinedNations() public constant returns (uint[]) {\n        return joinedNations[msg.sender];\n    }\n\n}\n",
  "sourcePath": "/Users/florian/project/nation-framework/contracts/nation/Nation.sol",
  "compiler": {
    "name": "solc",
    "version": "0.4.18+commit.9cf6e910.Emscripten.clang"
  },
  "schemaVersion": "1.0.1",
  "updatedAt": "2018-01-23T19:00:41.923Z"
}