{
  "contractName": "Nation2",
  "abi": [
    {
      "constant": false,
      "inputs": [
        {
          "name": "_number",
          "type": "uint256"
        }
      ],
      "name": "setNumber",
      "outputs": [],
      "payable": false,
      "stateMutability": "nonpayable",
      "type": "function"
    },
    {
      "constant": false,
      "inputs": [
        {
          "name": "_newNation",
          "type": "address"
        }
      ],
      "name": "upgradeNation",
      "outputs": [],
      "payable": false,
      "stateMutability": "nonpayable",
      "type": "function"
    },
    {
      "constant": true,
      "inputs": [],
      "name": "number",
      "outputs": [
        {
          "name": "",
          "type": "uint256"
        }
      ],
      "payable": false,
      "stateMutability": "view",
      "type": "function"
    },
    {
      "constant": true,
      "inputs": [],
      "name": "owner",
      "outputs": [
        {
          "name": "",
          "type": "address"
        }
      ],
      "payable": false,
      "stateMutability": "view",
      "type": "function"
    },
    {
      "constant": true,
      "inputs": [],
      "name": "nationImpl",
      "outputs": [
        {
          "name": "",
          "type": "address"
        }
      ],
      "payable": false,
      "stateMutability": "view",
      "type": "function"
    },
    {
      "constant": true,
      "inputs": [],
      "name": "getNumber",
      "outputs": [
        {
          "name": "",
          "type": "uint256"
        }
      ],
      "payable": false,
      "stateMutability": "view",
      "type": "function"
    },
    {
      "anonymous": false,
      "inputs": [
        {
          "indexed": true,
          "name": "newNation",
          "type": "address"
        }
      ],
      "name": "UpgradeNation",
      "type": "event"
    }
  ],
  "bytecode": "0x606060405233600160006101000a81548173ffffffffffffffffffffffffffffffffffffffff021916908373ffffffffffffffffffffffffffffffffffffffff160217905550610343806100546000396000f300606060405260043610610078576000357c0100000000000000000000000000000000000000000000000000000000900463ffffffff1680633fb5c1cb1461007d5780636bcdf684146100a05780638381f58a146100d95780638da5cb5b14610102578063bfb93db214610157578063f2c9ecd8146101ac575b600080fd5b341561008857600080fd5b61009e60048080359060200190919050506101d5565b005b34156100ab57600080fd5b6100d7600480803573ffffffffffffffffffffffffffffffffffffffff169060200190919050506101df565b005b34156100e457600080fd5b6100ec6102bc565b6040518082815260200191505060405180910390f35b341561010d57600080fd5b6101156102c2565b604051808273ffffffffffffffffffffffffffffffffffffffff1673ffffffffffffffffffffffffffffffffffffffff16815260200191505060405180910390f35b341561016257600080fd5b61016a6102e8565b604051808273ffffffffffffffffffffffffffffffffffffffff1673ffffffffffffffffffffffffffffffffffffffff16815260200191505060405180910390f35b34156101b757600080fd5b6101bf61030d565b6040518082815260200191505060405180910390f35b8060028190555050565b600160009054906101000a900473ffffffffffffffffffffffffffffffffffffffff1673ffffffffffffffffffffffffffffffffffffffff163373ffffffffffffffffffffffffffffffffffffffff1614156102b957806000806101000a81548173ffffffffffffffffffffffffffffffffffffffff021916908373ffffffffffffffffffffffffffffffffffffffff1602179055508073ffffffffffffffffffffffffffffffffffffffff167f96dc278a09010354092c3b2beee61cbd40382700783ba6889beb923b4c9f099e60405160405180910390a25b50565b60025481565b600160009054906101000a900473ffffffffffffffffffffffffffffffffffffffff1681565b6000809054906101000a900473ffffffffffffffffffffffffffffffffffffffff1681565b60006002549050905600a165627a7a72305820f79cb60fe08fc557ef1b96d2c56f9eccb859930585b3efa22e8f2fb7bf0c31fa0029",
  "source": "pragma solidity 0.4.18;\n\nimport \"./INation.sol\";\nimport \"./NationStorage.sol\";\nimport \"../common/Initializable.sol\";\nimport \"../ownership/Ownable.sol\";\n\ncontract Nation2 is INation, NationStorage, Ownable {\n\n    uint public number;\n\n    event UpgradeNation(address indexed newNation);\n\n    /**\n    * @dev Changes kernel implementation reference to a new address\n    * @notice Upgrade kernel to new implementation at address `_newNation` (CRITICAL!)\n    * @param _newNation Address for new kernel code\n    */\n    function upgradeNation(address _newNation) onlyOwner external {\n        nationImpl = _newNation;\n        UpgradeNation(_newNation);\n    }\n\n    function setNumber(uint _number) public {\n        number = _number;\n    }\n\n    function getNumber() public constant returns (uint) {\n        return number;\n    }\n\n}\n\n\n\n",
  "sourcePath": "/Users/WilliamHuang/Developer/Job-Development/BitNation/nations-framwork-poc/contracts/zeppelin/nation/Nation2.sol",
  "compiler": {
    "name": "solc",
    "version": "0.4.18+commit.9cf6e910.Emscripten.clang"
  },
  "schemaVersion": "1.0.1",
  "updatedAt": "2017-11-28T23:28:48.862Z"
}