{
  "contractName": "NationProxy",
  "abi": [
    {
      "constant": true,
      "inputs": [],
      "name": "nationImpl",
      "outputs": [
        {
          "name": "",
          "type": "address"
        }
      ],
      "payable": false,
      "stateMutability": "view",
      "type": "function"
    },
    {
      "inputs": [
        {
          "name": "_nationImpl",
          "type": "address"
        }
      ],
      "payable": false,
      "stateMutability": "nonpayable",
      "type": "constructor"
    },
    {
      "payable": true,
      "stateMutability": "payable",
      "type": "fallback"
    }
  ],
  "bytecode": "0x6060604052341561000f57600080fd5b60405160208061021383398101604052808051906020019091905050806000806101000a81548173ffffffffffffffffffffffffffffffffffffffff021916908373ffffffffffffffffffffffffffffffffffffffff160217905550506101988061007b6000396000f300606060405260043610610041576000357c0100000000000000000000000000000000000000000000000000000000900463ffffffff168063bfb93db2146100a1575b61009f6000809054906101000a900473ffffffffffffffffffffffffffffffffffffffff166000368080601f0160208091040260200160405190810160405280939291908181526020018383808284378201915050505050506100f6565b005b34156100ac57600080fd5b6100b4610134565b604051808273ffffffffffffffffffffffffffffffffffffffff1673ffffffffffffffffffffffffffffffffffffffff16815260200191505060405180910390f35b6100ff82610159565b151561010a57600080fd5b600080825160208401856127105a03f43d604051816000823e8260008114610130578282f35b8282fd5b6000809054906101000a900473ffffffffffffffffffffffffffffffffffffffff1681565b600080823b9050600081119150509190505600a165627a7a72305820970b879ff7742c36a72254abc7215b1fe4b3eb8cb97b932b89374d7c93bd2b4b0029",
  "source": "pragma solidity ^0.4.18;\n\nimport \"./NationStorage.sol\";\nimport \"../common/DelegateProxy.sol\";\n\n/**\n * @title NationProxy\n * @dev The proxy contract that forwards all function calls to the nation\n * Implementation that is currently being used\n */\ncontract NationProxy is NationStorage, DelegateProxy {\n\n    // This is a proxy contract to a nation implementation. The implementation can\n    // Update the reference, which upgrades the contract\n\n    function NationProxy(address _nationImpl) public {\n        nationImpl = _nationImpl;\n    }\n\n    // All calls made to the proxy are forwarded to the nation implementation via a delegatecall\n    function () payable public {\n        delegatedFwd(nationImpl, msg.data);\n    }\n\n}\n",
  "sourcePath": "/Users/florian/project/nation-framework/contracts/nation/NationProxy.sol",
  "compiler": {
    "name": "solc",
    "version": "0.4.18+commit.9cf6e910.Emscripten.clang"
  },
  "schemaVersion": "1.0.1",
  "updatedAt": "2018-01-26T17:51:27.792Z"
}