{
  "contractName": "NationStorage",
  "abi": [
    {
      "constant": true,
      "inputs": [],
      "name": "nationImpl",
      "outputs": [
        {
          "name": "",
          "type": "address"
        }
      ],
      "payable": false,
      "stateMutability": "view",
      "type": "function"
    }
  ],
  "bytecode": "0x6060604052341561000f57600080fd5b60e78061001d6000396000f300606060405260043610603f576000357c0100000000000000000000000000000000000000000000000000000000900463ffffffff168063bfb93db2146044575b600080fd5b3415604e57600080fd5b60546096565b604051808273ffffffffffffffffffffffffffffffffffffffff1673ffffffffffffffffffffffffffffffffffffffff16815260200191505060405180910390f35b6000809054906101000a900473ffffffffffffffffffffffffffffffffffffffff16815600a165627a7a7230582024a76ff69f13abeb743c18ef4bae3c017637608a7a88a5c7a959ccbd374523d60029",
  "source": "pragma solidity 0.4.18;\n\ncontract NationStorage {\n    address public nationImpl;\n}",
  "sourcePath": "/Users/WilliamHuang/Developer/Job-Development/BitNation/nations-framwork-poc/contracts/zeppelin/nation/NationStorage.sol",
  "compiler": {
    "name": "solc",
    "version": "0.4.18+commit.9cf6e910.Emscripten.clang"
  },
  "schemaVersion": "1.0.1",
  "updatedAt": "2017-11-28T23:26:28.215Z"
}