{
  "contractName": "NationStorage",
  "abi": [
    {
      "constant": true,
      "inputs": [],
      "name": "nationImpl",
      "outputs": [
        {
          "name": "",
          "type": "address"
        }
      ],
      "payable": false,
      "stateMutability": "view",
      "type": "function"
    }
  ],
  "bytecode": "0x6060604052341561000f57600080fd5b60e78061001d6000396000f300606060405260043610603f576000357c0100000000000000000000000000000000000000000000000000000000900463ffffffff168063bfb93db2146044575b600080fd5b3415604e57600080fd5b60546096565b604051808273ffffffffffffffffffffffffffffffffffffffff1673ffffffffffffffffffffffffffffffffffffffff16815260200191505060405180910390f35b6000809054906101000a900473ffffffffffffffffffffffffffffffffffffffff16815600a165627a7a723058208209691e9b9a3e036c00c1e36b1862688321e761d554db22d05da8bd1b2725c00029",
  "source": "pragma solidity ^0.4.18;\n\n/**\n * @title NationStorage\n * @dev Contains the address of the current nation implementation\n */\ncontract NationStorage {\n    address public nationImpl;\n}\n",
  "sourcePath": "/Users/WilliamHuang/Developer/Job-Development/BitNation/nation-framework/contracts/nation/NationStorage.sol",
  "compiler": {
    "name": "solc",
    "version": "0.4.18+commit.9cf6e910.Emscripten.clang"
  },
  "schemaVersion": "1.0.1",
  "updatedAt": "2018-01-23T17:09:00.541Z"
}