{
  "contractName": "NationProxy",
  "abi": [
    {
      "constant": false,
      "inputs": [],
      "name": "getNation",
      "outputs": [
        {
          "name": "",
          "type": "address"
        }
      ],
      "payable": false,
      "stateMutability": "nonpayable",
      "type": "function"
    },
    {
      "inputs": [
        {
          "name": "_nationImpl",
          "type": "address"
        }
      ],
      "payable": false,
      "stateMutability": "view",
      "type": "function",
      "constant": true,
      "name": "nationImpl",
      "outputs": [
        {
          "name": "",
          "type": "address"
        }
      ]
    },
    {
      "payable": false,
      "stateMutability": "nonpayable",
      "type": "constructor",
      "constant": false,
      "inputs": [
        {
          "name": "_nationImpl",
          "type": "address"
        }
      ],
      "name": "getNumber",
      "outputs": [
        {
          "name": "",
          "type": "uint256"
        }
      ]
    },
    {
      "inputs": [
        {
          "name": "_nationImpl",
          "type": "address"
        }
      ],
      "payable": true,
      "stateMutability": "payable",
      "type": "fallback"
    },
    {
      "payable": true,
      "stateMutability": "payable",
      "type": "fallback"
    }
  ],
  "bytecode": "0x6060604052341561000f57600080fd5b60405160208061029c83398101604052808051906020019091905050806000806101000a81548173ffffffffffffffffffffffffffffffffffffffff021916908373ffffffffffffffffffffffffffffffffffffffff160217905550506102218061007b6000396000f30060606040526004361061004c576000357c0100000000000000000000000000000000000000000000000000000000900463ffffffff168063b46a357f146100ac578063bfb93db214610101575b6100aa6000809054906101000a900473ffffffffffffffffffffffffffffffffffffffff166000368080601f016020809104026020016040519081016040528093929190818152602001838380828437820191505050505050610156565b005b34156100b757600080fd5b6100bf610194565b604051808273ffffffffffffffffffffffffffffffffffffffff1673ffffffffffffffffffffffffffffffffffffffff16815260200191505060405180910390f35b341561010c57600080fd5b6101146101bd565b604051808273ffffffffffffffffffffffffffffffffffffffff1673ffffffffffffffffffffffffffffffffffffffff16815260200191505060405180910390f35b61015f826101e2565b151561016a57600080fd5b600080825160208401856127105a03f43d604051816000823e8260008114610190578282f35b8282fd5b60008060009054906101000a900473ffffffffffffffffffffffffffffffffffffffff16905090565b6000809054906101000a900473ffffffffffffffffffffffffffffffffffffffff1681565b600080823b9050600081119150509190505600a165627a7a7230582057024ff5f242cdca375f2689a3fc30ad67fad345a0249fb31220856e5f71ad000029",
  "source": "pragma solidity 0.4.18;\n\nimport \"./NationStorage.sol\";\nimport \"../common/DelegateProxy.sol\";\n\ncontract NationProxy is NationStorage, DelegateProxy {\n\n    // This is a proxy contract to a nation implementation. The implementation can\n    // Update the reference, which upgrades the contract\n\n    function NationProxy(address _nationImpl) public {\n        nationImpl = _nationImpl;\n    }\n\n    function getNation() public returns (address) {\n        return nationImpl;\n    }\n\n    // All calls made to the proxy are forwarded to the nation implementation via a delegatecall\n    function () payable public {\n        delegatedFwd(nationImpl, msg.data);\n    }\n\n}",
  "sourcePath": "/Users/WilliamHuang/Developer/Job-Development/BitNation/nations-framwork-poc/contracts/zeppelin/nation/NationProxy.sol",
  "compiler": {
    "name": "solc",
    "version": "0.4.18+commit.9cf6e910.Emscripten.clang"
  },
  "schemaVersion": "1.0.1",
  "updatedAt": "2017-11-28T23:28:48.871Z"
}