{
  "contractName": "UpgradedNation",
  "abi": [
    {
      "constant": false,
      "inputs": [
        {
          "name": "_nationId",
          "type": "uint256"
        }
      ],
      "name": "joinNation",
      "outputs": [],
      "payable": false,
      "stateMutability": "nonpayable",
      "type": "function"
    },
    {
      "constant": true,
      "inputs": [],
      "name": "numNations",
      "outputs": [
        {
          "name": "",
          "type": "uint256"
        }
      ],
      "payable": false,
      "stateMutability": "view",
      "type": "function"
    },
    {
      "constant": true,
      "inputs": [
        {
          "name": "_citizenAddress",
          "type": "address"
        },
        {
          "name": "_nationId",
          "type": "uint256"
        }
      ],
      "name": "checkCitizen",
      "outputs": [
        {
          "name": "",
          "type": "bool"
        }
      ],
      "payable": false,
      "stateMutability": "view",
      "type": "function"
    },
    {
      "constant": true,
      "inputs": [
        {
          "name": "_nationId",
          "type": "uint256"
        }
      ],
      "name": "getNationGovernance",
      "outputs": [
        {
          "name": "_decisionMakingProcess",
          "type": "string"
        },
        {
          "name": "_diplomaticRecognition",
          "type": "bool"
        },
        {
          "name": "_governanceService",
          "type": "string"
        },
        {
          "name": "_nonCitizenUse",
          "type": "bool"
        }
      ],
      "payable": false,
      "stateMutability": "view",
      "type": "function"
    },
    {
      "constant": false,
      "inputs": [
        {
          "name": "_nationId",
          "type": "uint256"
        },
        {
          "name": "_decisionMakingProcess",
          "type": "string"
        },
        {
          "name": "_diplomaticRecognition",
          "type": "bool"
        },
        {
          "name": "_governanceService",
          "type": "string"
        },
        {
          "name": "_nonCitizenUse",
          "type": "bool"
        }
      ],
      "name": "SetNationGovernance",
      "outputs": [],
      "payable": false,
      "stateMutability": "nonpayable",
      "type": "function"
    },
    {
      "constant": false,
      "inputs": [
        {
          "name": "_nationId",
          "type": "uint256"
        },
        {
          "name": "_nationCode",
          "type": "string"
        },
        {
          "name": "_nationCodeLink",
          "type": "string"
        },
        {
          "name": "_lawEnforcementMechanism",
          "type": "string"
        },
        {
          "name": "_profit",
          "type": "bool"
        }
      ],
      "name": "SetNationPolicy",
      "outputs": [],
      "payable": false,
      "stateMutability": "nonpayable",
      "type": "function"
    },
    {
      "constant": true,
      "inputs": [],
      "name": "isUpgraded",
      "outputs": [
        {
          "name": "",
          "type": "bool"
        }
      ],
      "payable": false,
      "stateMutability": "pure",
      "type": "function"
    },
    {
      "constant": false,
      "inputs": [
        {
          "name": "_nationName",
          "type": "string"
        },
        {
          "name": "_nationDescription",
          "type": "string"
        },
        {
          "name": "_exists",
          "type": "bool"
        },
        {
          "name": "_virtualNation",
          "type": "bool"
        }
      ],
      "name": "createNationCore",
      "outputs": [],
      "payable": false,
      "stateMutability": "nonpayable",
      "type": "function"
    },
    {
      "constant": false,
      "inputs": [
        {
          "name": "_nationId",
          "type": "uint256"
        }
      ],
      "name": "leaveNation",
      "outputs": [],
      "payable": false,
      "stateMutability": "nonpayable",
      "type": "function"
    },
    {
      "constant": false,
      "inputs": [
        {
          "name": "_newNation",
          "type": "address"
        }
      ],
      "name": "upgradeNation",
      "outputs": [],
      "payable": false,
      "stateMutability": "nonpayable",
      "type": "function"
    },
    {
      "constant": true,
      "inputs": [
        {
          "name": "_nationId",
          "type": "uint256"
        }
      ],
      "name": "getNationName",
      "outputs": [
        {
          "name": "",
          "type": "string"
        }
      ],
      "payable": false,
      "stateMutability": "view",
      "type": "function"
    },
    {
      "constant": true,
      "inputs": [],
      "name": "NationCoreVersion",
      "outputs": [
        {
          "name": "",
          "type": "uint256"
        }
      ],
      "payable": false,
      "stateMutability": "view",
      "type": "function"
    },
    {
      "constant": true,
      "inputs": [],
      "name": "getInitializationBlock",
      "outputs": [
        {
          "name": "",
          "type": "uint256"
        }
      ],
      "payable": false,
      "stateMutability": "view",
      "type": "function"
    },
    {
      "constant": true,
      "inputs": [],
      "name": "owner",
      "outputs": [
        {
          "name": "",
          "type": "address"
        }
      ],
      "payable": false,
      "stateMutability": "view",
      "type": "function"
    },
    {
      "constant": true,
      "inputs": [
        {
          "name": "_nationId",
          "type": "uint256"
        }
      ],
      "name": "getNationPolicy",
      "outputs": [
        {
          "name": "_nationCode",
          "type": "string"
        },
        {
          "name": "_nationCodeLink",
          "type": "string"
        },
        {
          "name": "_lawEnforcementMechanism",
          "type": "string"
        },
        {
          "name": "_profit",
          "type": "bool"
        }
      ],
      "payable": false,
      "stateMutability": "view",
      "type": "function"
    },
    {
      "constant": false,
      "inputs": [
        {
          "name": "_newOwner",
          "type": "address"
        }
      ],
      "name": "changeOwner",
      "outputs": [],
      "payable": false,
      "stateMutability": "nonpayable",
      "type": "function"
    },
    {
      "constant": true,
      "inputs": [
        {
          "name": "_nationId",
          "type": "uint256"
        }
      ],
      "name": "getNationCore",
      "outputs": [
        {
          "name": "_nationName",
          "type": "string"
        },
        {
          "name": "_nationDescription",
          "type": "string"
        },
        {
          "name": "_exists",
          "type": "bool"
        },
        {
          "name": "_virtualNation",
          "type": "bool"
        },
        {
          "name": "_founder",
          "type": "address"
        }
      ],
      "payable": false,
      "stateMutability": "view",
      "type": "function"
    },
    {
      "constant": true,
      "inputs": [],
      "name": "nationImpl",
      "outputs": [
        {
          "name": "",
          "type": "address"
        }
      ],
      "payable": false,
      "stateMutability": "view",
      "type": "function"
    },
    {
      "constant": true,
      "inputs": [
        {
          "name": "_founder",
          "type": "address"
        }
      ],
      "name": "getFoundedNations",
      "outputs": [
        {
          "name": "",
          "type": "uint256[]"
        }
      ],
      "payable": false,
      "stateMutability": "view",
      "type": "function"
    },
    {
      "constant": false,
      "inputs": [
        {
          "name": "_owner",
          "type": "address"
        }
      ],
      "name": "initialize",
      "outputs": [],
      "payable": false,
      "stateMutability": "nonpayable",
      "type": "function"
    },
    {
      "constant": true,
      "inputs": [
        {
          "name": "_nationId",
          "type": "uint256"
        }
      ],
      "name": "getNumCitizens",
      "outputs": [
        {
          "name": "",
          "type": "uint256"
        }
      ],
      "payable": false,
      "stateMutability": "view",
      "type": "function"
    },
    {
      "anonymous": false,
      "inputs": [
        {
          "indexed": true,
          "name": "newNation",
          "type": "address"
        }
      ],
      "name": "UpgradeNation",
      "type": "event"
    },
    {
      "anonymous": false,
      "inputs": [
        {
          "indexed": true,
          "name": "newOwner",
          "type": "address"
        }
      ],
      "name": "OwnerChanged",
      "type": "event"
    },
    {
      "anonymous": false,
      "inputs": [
        {
          "indexed": true,
          "name": "founder",
          "type": "address"
        },
        {
          "indexed": false,
          "name": "nationName",
          "type": "string"
        },
        {
          "indexed": true,
          "name": "nationId",
          "type": "uint256"
        }
      ],
      "name": "NationCoreCreated",
      "type": "event"
    },
    {
      "anonymous": false,
      "inputs": [
        {
          "indexed": false,
          "name": "nationName",
          "type": "string"
        },
        {
          "indexed": true,
          "name": "nationId",
          "type": "uint256"
        }
      ],
      "name": "NationPolicySet",
      "type": "event"
    },
    {
      "anonymous": false,
      "inputs": [
        {
          "indexed": false,
          "name": "nationName",
          "type": "string"
        },
        {
          "indexed": true,
          "name": "nationId",
          "type": "uint256"
        }
      ],
      "name": "NationGovernanceSet",
      "type": "event"
    },
    {
      "anonymous": false,
      "inputs": [
        {
          "indexed": true,
          "name": "nationId",
          "type": "uint256"
        },
        {
          "indexed": false,
          "name": "citizenAddress",
          "type": "address"
        }
      ],
      "name": "CitizenJoined",
      "type": "event"
    },
    {
      "anonymous": false,
      "inputs": [
        {
          "indexed": true,
          "name": "nationId",
          "type": "uint256"
        },
        {
          "indexed": false,
          "name": "citizenAddress",
          "type": "address"
        }
      ],
      "name": "CitizenLeft",
      "type": "event"
    }
  ],
  "bytecode": "0x606060405260016009819055506123f58061001b6000396000f30060606040526004361061011d576000357c0100000000000000000000000000000000000000000000000000000000900463ffffffff1680630a125d75146101225780630a1f4d101461014557806329fbb0b71461016e5780632e7711a2146101c857806339767bf4146102e657806339a0fa13146103a557806342c80fc91461049c57806355bf3f64146104c957806356263653146105215780636bcdf6841461054457806376d19b151461057d57806388368171146106195780638b3dd749146106425780638da5cb5b1461066b57806395537735146106c0578063a6f9dae11461083f578063af571c9c14610878578063bfb93db2146109c9578063c35fbfff14610a1e578063c4d66de814610aac578063d1f00ad114610ae5575b600080fd5b341561012d57600080fd5b6101436004808035906020019091905050610b1c565b005b341561015057600080fd5b610158610cea565b6040518082815260200191505060405180910390f35b341561017957600080fd5b6101ae600480803573ffffffffffffffffffffffffffffffffffffffff16906020019091908035906020019091905050610cf0565b604051808215151515815260200191505060405180910390f35b34156101d357600080fd5b6101e96004808035906020019091905050610d58565b6040518080602001851515151581526020018060200184151515158152602001838103835287818151815260200191508051906020019080838360005b83811015610241578082015181840152602081019050610226565b50505050905090810190601f16801561026e5780820380516001836020036101000a031916815260200191505b50838103825285818151815260200191508051906020019080838360005b838110156102a757808201518184015260208101905061028c565b50505050905090810190601f1680156102d45780820380516001836020036101000a031916815260200191505b50965050505050505060405180910390f35b34156102f157600080fd5b6103a3600480803590602001909190803590602001908201803590602001908080601f01602080910402602001604051908101604052809392919081815260200183838082843782019150505050505091908035151590602001909190803590602001908201803590602001908080601f016020809104026020016040519081016040528093929190818152602001838380828437820191505050505050919080351515906020019091905050610f3d565b005b34156103b057600080fd5b61049a600480803590602001909190803590602001908201803590602001908080601f0160208091040260200160405190810160405280939291908181526020018383808284378201915050505050509190803590602001908201803590602001908080601f0160208091040260200160405190810160405280939291908181526020018383808284378201915050505050509190803590602001908201803590602001908080601f01602080910402602001604051908101604052809392919081815260200183838082843782019150505050505091908035151590602001909190505061119f565b005b34156104a757600080fd5b6104af6113fc565b604051808215151515815260200191505060405180910390f35b34156104d457600080fd5b61051f60048080359060200190820180359060200191909192908035906020019082018035906020019190919290803515159060200190919080351515906020019091905050611405565b005b341561052c57600080fd5b61054260048080359060200190919050506116ba565b005b341561054f57600080fd5b61057b600480803573ffffffffffffffffffffffffffffffffffffffff16906020019091905050611889565b005b341561058857600080fd5b61059e600480803590602001909190505061196b565b6040518080602001828103825283818151815260200191508051906020019080838360005b838110156105de5780820151818401526020810190506105c3565b50505050905090810190601f16801561060b5780820380516001836020036101000a031916815260200191505b509250505060405180910390f35b341561062457600080fd5b61062c611a26565b6040518082815260200191505060405180910390f35b341561064d57600080fd5b610655611a2c565b6040518082815260200191505060405180910390f35b341561067657600080fd5b61067e611a36565b604051808273ffffffffffffffffffffffffffffffffffffffff1673ffffffffffffffffffffffffffffffffffffffff16815260200191505060405180910390f35b34156106cb57600080fd5b6106e16004808035906020019091905050611a5c565b6040518080602001806020018060200185151515158152602001848103845288818151815260200191508051906020019080838360005b83811015610733578082015181840152602081019050610718565b50505050905090810190601f1680156107605780820380516001836020036101000a031916815260200191505b50848103835287818151815260200191508051906020019080838360005b8381101561079957808201518184015260208101905061077e565b50505050905090810190601f1680156107c65780820380516001836020036101000a031916815260200191505b50848103825286818151815260200191508051906020019080838360005b838110156107ff5780820151818401526020810190506107e4565b50505050905090810190601f16801561082c5780820380516001836020036101000a031916815260200191505b5097505050505050505060405180910390f35b341561084a57600080fd5b610876600480803573ffffffffffffffffffffffffffffffffffffffff16906020019091905050611cce565b005b341561088357600080fd5b6108996004808035906020019091905050611db1565b60405180806020018060200186151515158152602001851515151581526020018473ffffffffffffffffffffffffffffffffffffffff1673ffffffffffffffffffffffffffffffffffffffff168152602001838103835288818151815260200191508051906020019080838360005b83811015610923578082015181840152602081019050610908565b50505050905090810190601f1680156109505780820380516001836020036101000a031916815260200191505b50838103825287818151815260200191508051906020019080838360005b8381101561098957808201518184015260208101905061096e565b50505050905090810190601f1680156109b65780820380516001836020036101000a031916815260200191505b5097505050505050505060405180910390f35b34156109d457600080fd5b6109dc611ff6565b604051808273ffffffffffffffffffffffffffffffffffffffff1673ffffffffffffffffffffffffffffffffffffffff16815260200191505060405180910390f35b3415610a2957600080fd5b610a55600480803573ffffffffffffffffffffffffffffffffffffffff1690602001909190505061201b565b6040518080602001828103825283818151815260200191508051906020019060200280838360005b83811015610a98578082015181840152602081019050610a7d565b505050509050019250505060405180910390f35b3415610ab757600080fd5b610ae3600480803573ffffffffffffffffffffffffffffffffffffffff169060200190919050506120b8565b005b3415610af057600080fd5b610b066004808035906020019091905050612115565b6040518082815260200191505060405180910390f35b600081111515610b2b57600080fd5b60006004600083815260200190815260200160002060000154111515610b5057600080fd5b600015156002600083815260200190815260200160002060003373ffffffffffffffffffffffffffffffffffffffff1673ffffffffffffffffffffffffffffffffffffffff16815260200190815260200160002060009054906101000a900460ff161515141515610bc057600080fd5b60036000828152602001908152602001600020546001600360008481526020019081526020016000205401111515610bf757600080fd5b60016002600083815260200190815260200160002060003373ffffffffffffffffffffffffffffffffffffffff1673ffffffffffffffffffffffffffffffffffffffff16815260200190815260200160002060006101000a81548160ff0219169083151502179055506003600082815260200190815260200160002060008154809291906001019190505550807fb4f10b2e9584a07f254934f59aec4ae9c6658a1e7b0b53b0f71353d8659a123033604051808273ffffffffffffffffffffffffffffffffffffffff1673ffffffffffffffffffffffffffffffffffffffff16815260200191505060405180910390a250565b600a5481565b60006002600083815260200190815260200160002060008473ffffffffffffffffffffffffffffffffffffffff1673ffffffffffffffffffffffffffffffffffffffff16815260200190815260200160002060009054906101000a900460ff16905092915050565b610d6061215b565b6000610d6a61215b565b6000610d7461216f565b6006600087815260200190815260200160002060a06040519081016040529081600082015481526020016001820160009054906101000a900460ff161515151581526020016001820160019054906101000a900460ff16151515158152602001600282018054600181600116156101000203166002900480601f016020809104026020016040519081016040528092919081815260200182805460018160011615610100020316600290048015610e6c5780601f10610e4157610100808354040283529160200191610e6c565b820191906000526020600020905b815481529060010190602001808311610e4f57829003601f168201915b50505050508152602001600382018054600181600116156101000203166002900480601f016020809104026020016040519081016040528092919081815260200182805460018160011615610100020316600290048015610f0e5780601f10610ee357610100808354040283529160200191610f0e565b820191906000526020600020905b815481529060010190602001808311610ef157829003601f168201915b505050505081525050905080606001519450806040015193508060800151925080602001519150509193509193565b600085111515610f4c57600080fd5b60006004600087815260200190815260200160002060000154111515610f7157600080fd5b3373ffffffffffffffffffffffffffffffffffffffff166004600087815260200190815260200160002060030160029054906101000a900473ffffffffffffffffffffffffffffffffffffffff1673ffffffffffffffffffffffffffffffffffffffff16141515610fe157600080fd5b6000600660008781526020019081526020016000206000015414151561100657600080fd5b60a0604051908101604052808681526020018215158152602001841515815260200185815260200183815250600660008781526020019081526020016000206000820151816000015560208201518160010160006101000a81548160ff02191690831515021790555060408201518160010160016101000a81548160ff02191690831515021790555060608201518160020190805190602001906110ab9291906121af565b5060808201518160030190805190602001906110c89291906121af565b50905050847f6527c7811937c0d36a1c7ed09ee09f0301707e6c8206bc5fdcd9783c273b161360076000888152602001908152602001600020604051808060200182810382528381815460018160011615610100020316600290048152602001915080546001816001161561010002031660029004801561118a5780601f1061115f5761010080835404028352916020019161118a565b820191906000526020600020905b81548152906001019060200180831161116d57829003601f168201915b50509250505060405180910390a25050505050565b6000851115156111ae57600080fd5b600060046000878152602001908152602001600020600001541115156111d357600080fd5b3373ffffffffffffffffffffffffffffffffffffffff166004600087815260200190815260200160002060030160029054906101000a900473ffffffffffffffffffffffffffffffffffffffff1673ffffffffffffffffffffffffffffffffffffffff1614151561124357600080fd5b6000600560008781526020019081526020016000206000015414151561126857600080fd5b60a060405190810160405280868152602001858152602001848152602001838152602001821515815250600560008781526020019081526020016000206000820151816000015560208201518160010190805190602001906112cb9291906121af565b5060408201518160020190805190602001906112e89291906121af565b5060608201518160030190805190602001906113059291906121af565b5060808201518160040160006101000a81548160ff021916908315150217905550905050847fbe336953dad1ce18b0d2890654f1f618732b99f75fa129ffcbd185dc8e28f4bb6007600088815260200190815260200160002060405180806020018281038252838181546001816001161561010002031660029004815260200191508054600181600116156101000203166002900480156113e75780601f106113bc576101008083540402835291602001916113e7565b820191906000526020600020905b8154815290600101906020018083116113ca57829003601f168201915b50509250505060405180910390a25050505050565b60006001905090565b60008686905011151561141757600080fd5b600a6000815480929190600101919050555060c060405190810160405280600a54815260200187878080601f016020809104026020016040519081016040528093929190818152602001838380828437820191505050505050815260200185858080601f0160208091040260200160405190810160405280939291908181526020018383808284378201915050505050508152602001831515815260200182151581526020013373ffffffffffffffffffffffffffffffffffffffff1681525060046000600a5481526020019081526020016000206000820151816000015560208201518160010190805190602001906115129291906121af565b50604082015181600201908051906020019061152f9291906121af565b5060608201518160030160006101000a81548160ff02191690831515021790555060808201518160030160016101000a81548160ff02191690831515021790555060a08201518160030160026101000a81548173ffffffffffffffffffffffffffffffffffffffff021916908373ffffffffffffffffffffffffffffffffffffffff160217905550905050858560076000600a54815260200190815260200160002091906115de92919061222f565b50600860003373ffffffffffffffffffffffffffffffffffffffff1673ffffffffffffffffffffffffffffffffffffffff168152602001908152602001600020805480600101828161163091906122af565b91600052602060002090016000600a5490919091505550600a543373ffffffffffffffffffffffffffffffffffffffff167ff85ec53934238930be869031fd5e58ef5d2ff5b959f41836e3d84f5660031de98888604051808060200182810382528484828181526020019250808284378201915050935050505060405180910390a3505050505050565b6000811115156116c957600080fd5b600060046000838152602001908152602001600020600001541115156116ee57600080fd5b600115156002600083815260200190815260200160002060003373ffffffffffffffffffffffffffffffffffffffff1673ffffffffffffffffffffffffffffffffffffffff16815260200190815260200160002060009054906101000a900460ff16151514151561175e57600080fd5b6003600082815260200190815260200160002054600160036000848152602001908152602001600020540310151561179557600080fd5b60006002600083815260200190815260200160002060003373ffffffffffffffffffffffffffffffffffffffff1673ffffffffffffffffffffffffffffffffffffffff16815260200190815260200160002060006101000a81548160ff021916908315150217905550600360008281526020019081526020016000206000815480929190600190039190505550807f52a35a8da1a8d5fddf3ef727810dd7f7d090a501e8e7bd1f6140447294f1550333604051808273ffffffffffffffffffffffffffffffffffffffff1673ffffffffffffffffffffffffffffffffffffffff16815260200191505060405180910390a250565b600b60009054906101000a900473ffffffffffffffffffffffffffffffffffffffff1673ffffffffffffffffffffffffffffffffffffffff163373ffffffffffffffffffffffffffffffffffffffff161415156118e557600080fd5b806000806101000a81548173ffffffffffffffffffffffffffffffffffffffff021916908373ffffffffffffffffffffffffffffffffffffffff1602179055508073ffffffffffffffffffffffffffffffffffffffff167f96dc278a09010354092c3b2beee61cbd40382700783ba6889beb923b4c9f099e60405160405180910390a250565b61197361215b565b600760008381526020019081526020016000208054600181600116156101000203166002900480601f016020809104026020016040519081016040528092919081815260200182805460018160011615610100020316600290048015611a1a5780601f106119ef57610100808354040283529160200191611a1a565b820191906000526020600020905b8154815290600101906020018083116119fd57829003601f168201915b50505050509050919050565b60095481565b6000600154905090565b600b60009054906101000a900473ffffffffffffffffffffffffffffffffffffffff1681565b611a6461215b565b611a6c61215b565b611a7461215b565b6000611a7e6122db565b6005600087815260200190815260200160002060a0604051908101604052908160008201548152602001600182018054600181600116156101000203166002900480601f016020809104026020016040519081016040528092919081815260200182805460018160011615610100020316600290048015611b405780601f10611b1557610100808354040283529160200191611b40565b820191906000526020600020905b815481529060010190602001808311611b2357829003601f168201915b50505050508152602001600282018054600181600116156101000203166002900480601f016020809104026020016040519081016040528092919081815260200182805460018160011615610100020316600290048015611be25780601f10611bb757610100808354040283529160200191611be2565b820191906000526020600020905b815481529060010190602001808311611bc557829003601f168201915b50505050508152602001600382018054600181600116156101000203166002900480601f016020809104026020016040519081016040528092919081815260200182805460018160011615610100020316600290048015611c845780601f10611c5957610100808354040283529160200191611c84565b820191906000526020600020905b815481529060010190602001808311611c6757829003601f168201915b505050505081526020016004820160009054906101000a900460ff161515151581525050905080602001519450806040015193508060600151925080608001519150509193509193565b600b60009054906101000a900473ffffffffffffffffffffffffffffffffffffffff1673ffffffffffffffffffffffffffffffffffffffff163373ffffffffffffffffffffffffffffffffffffffff16141515611d2a57600080fd5b80600b60006101000a81548173ffffffffffffffffffffffffffffffffffffffff021916908373ffffffffffffffffffffffffffffffffffffffff1602179055508073ffffffffffffffffffffffffffffffffffffffff167fa2ea9883a321a3e97b8266c2b078bfeec6d50c711ed71f874a90d500ae2eaf3660405160405180910390a250565b611db961215b565b611dc161215b565b6000806000611dce61231f565b6004600088815260200190815260200160002060c0604051908101604052908160008201548152602001600182018054600181600116156101000203166002900480601f016020809104026020016040519081016040528092919081815260200182805460018160011615610100020316600290048015611e905780601f10611e6557610100808354040283529160200191611e90565b820191906000526020600020905b815481529060010190602001808311611e7357829003601f168201915b50505050508152602001600282018054600181600116156101000203166002900480601f016020809104026020016040519081016040528092919081815260200182805460018160011615610100020316600290048015611f325780601f10611f0757610100808354040283529160200191611f32565b820191906000526020600020905b815481529060010190602001808311611f1557829003601f168201915b505050505081526020016003820160009054906101000a900460ff161515151581526020016003820160019054906101000a900460ff161515151581526020016003820160029054906101000a900473ffffffffffffffffffffffffffffffffffffffff1673ffffffffffffffffffffffffffffffffffffffff1673ffffffffffffffffffffffffffffffffffffffff16815250509050806020015195508060400151945080606001519350806080015192508060a0015191505091939590929450565b6000809054906101000a900473ffffffffffffffffffffffffffffffffffffffff1681565b61202361237c565b600860008373ffffffffffffffffffffffffffffffffffffffff1673ffffffffffffffffffffffffffffffffffffffff1681526020019081526020016000208054806020026020016040519081016040528092919081815260200182805480156120ac57602002820191906000526020600020905b815481526020019060010190808311612098575b50505050509050919050565b60006001541415156120c957600080fd5b6120d1612132565b80600b60006101000a81548173ffffffffffffffffffffffffffffffffffffffff021916908373ffffffffffffffffffffffffffffffffffffffff16021790555050565b600060036000838152602001908152602001600020549050919050565b600060015414151561214357600080fd5b61214b612153565b600181905550565b600043905090565b602060405190810160405280600081525090565b60a0604051908101604052806000815260200160001515815260200160001515815260200161219c612390565b81526020016121a9612390565b81525090565b828054600181600116156101000203166002900490600052602060002090601f016020900481019282601f106121f057805160ff191683800117855561221e565b8280016001018555821561221e579182015b8281111561221d578251825591602001919060010190612202565b5b50905061222b91906123a4565b5090565b828054600181600116156101000203166002900490600052602060002090601f016020900481019282601f1061227057803560ff191683800117855561229e565b8280016001018555821561229e579182015b8281111561229d578235825591602001919060010190612282565b5b5090506122ab91906123a4565b5090565b8154818355818115116122d6578183600052602060002091820191016122d591906123a4565b5b505050565b60a060405190810160405280600081526020016122f6612390565b8152602001612303612390565b8152602001612310612390565b81526020016000151581525090565b60c0604051908101604052806000815260200161233a612390565b8152602001612347612390565b8152602001600015158152602001600015158152602001600073ffffffffffffffffffffffffffffffffffffffff1681525090565b602060405190810160405280600081525090565b602060405190810160405280600081525090565b6123c691905b808211156123c25760008160009055506001016123aa565b5090565b905600a165627a7a72305820bbc019fc67b3f59e679a0969b80eb302681f4ececc2b571c6c833fd42c434fbb0029",
  "source": "pragma solidity ^0.4.18;\n\nimport \"./Nation.sol\";\n\n/**\n * @title UpgradedNation\n * @dev Used for testing the Nation's upgradeability\n */\ncontract UpgradedNation is Nation {\n\n    function isUpgraded() public pure returns (bool) {\n        return true;\n    }\n\n}\n\n\n\n",
  "sourcePath": "/Users/WilliamHuang/Developer/Job-Development/BitNation/nation-framework/contracts/nation/UpgradedNation.sol",
  "compiler": {
    "name": "solc",
    "version": "0.4.18+commit.9cf6e910.Emscripten.clang"
  },
  "schemaVersion": "1.0.1",
  "updatedAt": "2018-01-18T21:03:14.017Z"
}