{
  "contractName": "UpgradedNation",
  "abi": [
    {
      "constant": false,
      "inputs": [
        {
          "name": "_nationId",
          "type": "uint256"
        }
      ],
      "name": "joinNation",
      "outputs": [],
      "payable": false,
      "stateMutability": "nonpayable",
      "type": "function"
    },
    {
      "constant": true,
      "inputs": [],
      "name": "numNations",
      "outputs": [
        {
          "name": "",
          "type": "uint256"
        }
      ],
      "payable": false,
      "stateMutability": "view",
      "type": "function"
    },
    {
      "constant": true,
      "inputs": [
        {
          "name": "_nationId",
          "type": "uint256"
        }
      ],
      "name": "getNationMetaData",
      "outputs": [
        {
          "name": "",
          "type": "string"
        }
      ],
      "payable": false,
      "stateMutability": "view",
      "type": "function"
    },
    {
      "constant": false,
      "inputs": [
        {
          "name": "_metaData",
          "type": "string"
        }
      ],
      "name": "createNation",
      "outputs": [],
      "payable": false,
      "stateMutability": "nonpayable",
      "type": "function"
    },
    {
      "constant": true,
      "inputs": [
        {
          "name": "_citizenAddress",
          "type": "address"
        },
        {
          "name": "_nationId",
          "type": "uint256"
        }
      ],
      "name": "checkCitizen",
      "outputs": [
        {
          "name": "",
          "type": "bool"
        }
      ],
      "payable": false,
      "stateMutability": "view",
      "type": "function"
    },
    {
      "constant": true,
      "inputs": [],
      "name": "isUpgraded",
      "outputs": [
        {
          "name": "",
          "type": "bool"
        }
      ],
      "payable": false,
      "stateMutability": "pure",
      "type": "function"
    },
    {
      "constant": false,
      "inputs": [
        {
          "name": "_nationId",
          "type": "uint256"
        }
      ],
      "name": "leaveNation",
      "outputs": [],
      "payable": false,
      "stateMutability": "nonpayable",
      "type": "function"
    },
    {
      "constant": false,
      "inputs": [
        {
          "name": "_newNation",
          "type": "address"
        }
      ],
      "name": "upgradeNation",
      "outputs": [],
      "payable": false,
      "stateMutability": "nonpayable",
      "type": "function"
    },
    {
      "constant": true,
      "inputs": [],
      "name": "NationCoreVersion",
      "outputs": [
        {
          "name": "",
          "type": "uint256"
        }
      ],
      "payable": false,
      "stateMutability": "view",
      "type": "function"
    },
    {
      "constant": true,
      "inputs": [],
      "name": "getInitializationBlock",
      "outputs": [
        {
          "name": "",
          "type": "uint256"
        }
      ],
      "payable": false,
      "stateMutability": "view",
      "type": "function"
    },
    {
      "constant": true,
      "inputs": [],
      "name": "owner",
      "outputs": [
        {
          "name": "",
          "type": "address"
        }
      ],
      "payable": false,
      "stateMutability": "view",
      "type": "function"
    },
    {
      "constant": false,
      "inputs": [
        {
          "name": "_newOwner",
          "type": "address"
        }
      ],
      "name": "changeOwner",
      "outputs": [],
      "payable": false,
      "stateMutability": "nonpayable",
      "type": "function"
    },
    {
      "constant": true,
      "inputs": [],
      "name": "nationImpl",
      "outputs": [
        {
          "name": "",
          "type": "address"
        }
      ],
      "payable": false,
      "stateMutability": "view",
      "type": "function"
    },
    {
      "constant": true,
      "inputs": [],
      "name": "getJoinedNations",
      "outputs": [
        {
          "name": "",
          "type": "uint256[]"
        }
      ],
      "payable": false,
      "stateMutability": "view",
      "type": "function"
    },
    {
      "constant": true,
      "inputs": [
        {
          "name": "_founder",
          "type": "address"
        }
      ],
      "name": "getFoundedNations",
      "outputs": [
        {
          "name": "",
          "type": "uint256[]"
        }
      ],
      "payable": false,
      "stateMutability": "view",
      "type": "function"
    },
    {
      "constant": false,
      "inputs": [
        {
          "name": "_owner",
          "type": "address"
        }
      ],
      "name": "initialize",
      "outputs": [],
      "payable": false,
      "stateMutability": "nonpayable",
      "type": "function"
    },
    {
      "constant": true,
      "inputs": [
        {
          "name": "_nationId",
          "type": "uint256"
        }
      ],
      "name": "getNumCitizens",
      "outputs": [
        {
          "name": "",
          "type": "uint256"
        }
      ],
      "payable": false,
      "stateMutability": "view",
      "type": "function"
    },
    {
      "anonymous": false,
      "inputs": [
        {
          "indexed": true,
          "name": "newNation",
          "type": "address"
        }
      ],
      "name": "UpgradeNation",
      "type": "event"
    },
    {
      "anonymous": false,
      "inputs": [
        {
          "indexed": true,
          "name": "newOwner",
          "type": "address"
        }
      ],
      "name": "OwnerChanged",
      "type": "event"
    },
    {
      "anonymous": false,
      "inputs": [
        {
          "indexed": true,
          "name": "founder",
          "type": "address"
        },
        {
          "indexed": true,
          "name": "nationId",
          "type": "uint256"
        }
      ],
      "name": "NationCreated",
      "type": "event"
    },
    {
      "anonymous": false,
      "inputs": [
        {
          "indexed": true,
          "name": "nationId",
          "type": "uint256"
        },
        {
          "indexed": false,
          "name": "citizenAddress",
          "type": "address"
        }
      ],
      "name": "CitizenJoined",
      "type": "event"
    },
    {
      "anonymous": false,
      "inputs": [
        {
          "indexed": true,
          "name": "nationId",
          "type": "uint256"
        },
        {
          "indexed": false,
          "name": "citizenAddress",
          "type": "address"
        }
      ],
      "name": "CitizenLeft",
      "type": "event"
    }
  ],
  "bytecode": "0x6060604052600160078190555061121a8061001b6000396000f3006060604052600436106100f1576000357c0100000000000000000000000000000000000000000000000000000000900463ffffffff1680630a125d75146100f65780630a1f4d1014610119578063182fe670146101425780632425681d146101de57806329fbb0b71461020c57806342c80fc91461026657806356263653146102935780636bcdf684146102b657806388368171146102ef5780638b3dd749146103185780638da5cb5b14610341578063a6f9dae114610396578063bfb93db2146103cf578063c105afc014610424578063c35fbfff1461048e578063c4d66de81461051c578063d1f00ad114610555575b600080fd5b341561010157600080fd5b610117600480803590602001909190505061058c565b005b341561012457600080fd5b61012c6107d1565b6040518082815260200191505060405180910390f35b341561014d57600080fd5b61016360048080359060200190919050506107d7565b6040518080602001828103825283818151815260200191508051906020019080838360005b838110156101a3578082015181840152602081019050610188565b50505050905090810190601f1680156101d05780820380516001836020036101000a031916815260200191505b509250505060405180910390f35b34156101e957600080fd5b61020a60048080359060200190820180359060200191909192905050610892565b005b341561021757600080fd5b61024c600480803573ffffffffffffffffffffffffffffffffffffffff1690602001909190803590602001909190505061098d565b604051808215151515815260200191505060405180910390f35b341561027157600080fd5b6102796109f5565b604051808215151515815260200191505060405180910390f35b341561029e57600080fd5b6102b460048080359060200190919050506109fe565b005b34156102c157600080fd5b6102ed600480803573ffffffffffffffffffffffffffffffffffffffff16906020019091905050610cfa565b005b34156102fa57600080fd5b610302610ddc565b6040518082815260200191505060405180910390f35b341561032357600080fd5b61032b610de2565b6040518082815260200191505060405180910390f35b341561034c57600080fd5b610354610dec565b604051808273ffffffffffffffffffffffffffffffffffffffff1673ffffffffffffffffffffffffffffffffffffffff16815260200191505060405180910390f35b34156103a157600080fd5b6103cd600480803573ffffffffffffffffffffffffffffffffffffffff16906020019091905050610e12565b005b34156103da57600080fd5b6103e2610ef5565b604051808273ffffffffffffffffffffffffffffffffffffffff1673ffffffffffffffffffffffffffffffffffffffff16815260200191505060405180910390f35b341561042f57600080fd5b610437610f1a565b6040518080602001828103825283818151815260200191508051906020019060200280838360005b8381101561047a57808201518184015260208101905061045f565b505050509050019250505060405180910390f35b341561049957600080fd5b6104c5600480803573ffffffffffffffffffffffffffffffffffffffff16906020019091905050610fb5565b6040518080602001828103825283818151815260200191508051906020019060200280838360005b838110156105085780820151818401526020810190506104ed565b505050509050019250505060405180910390f35b341561052757600080fd5b610553600480803573ffffffffffffffffffffffffffffffffffffffff16906020019091905050611052565b005b341561056057600080fd5b61057660048080359060200190919050506110af565b6040518082815260200191505060405180910390f35b60008111151561059b57600080fd5b6000600460008381526020019081526020016000208054600181600116156101000203166002900490501115156105d157600080fd5b600015156002600083815260200190815260200160002060003373ffffffffffffffffffffffffffffffffffffffff1673ffffffffffffffffffffffffffffffffffffffff16815260200190815260200160002060009054906101000a900460ff16151514151561064157600080fd5b6003600082815260200190815260200160002054600160036000848152602001908152602001600020540111151561067857600080fd5b600660003373ffffffffffffffffffffffffffffffffffffffff1673ffffffffffffffffffffffffffffffffffffffff16815260200190815260200160002080548060010182816106c991906110f5565b91600052602060002090016000839091909150555060016002600083815260200190815260200160002060003373ffffffffffffffffffffffffffffffffffffffff1673ffffffffffffffffffffffffffffffffffffffff16815260200190815260200160002060006101000a81548160ff0219169083151502179055506003600082815260200190815260200160002060008154809291906001019190505550807fb4f10b2e9584a07f254934f59aec4ae9c6658a1e7b0b53b0f71353d8659a123033604051808273ffffffffffffffffffffffffffffffffffffffff1673ffffffffffffffffffffffffffffffffffffffff16815260200191505060405180910390a250565b60085481565b6107df611121565b600460008381526020019081526020016000208054600181600116156101000203166002900480601f0160208091040260200160405190810160405280929190818152602001828054600181600116156101000203166002900480156108865780601f1061085b57610100808354040283529160200191610886565b820191906000526020600020905b81548152906001019060200180831161086957829003601f168201915b50505050509050919050565b6000828290501115156108a457600080fd5b600860008154809291906001019190505550818160046000600854815260200190815260200160002091906108da929190611135565b50600560003373ffffffffffffffffffffffffffffffffffffffff1673ffffffffffffffffffffffffffffffffffffffff168152602001908152602001600020805480600101828161092c91906110f5565b91600052602060002090016000600854909190915055506008543373ffffffffffffffffffffffffffffffffffffffff167f562630beb8244d7ec96e76e47e7a2fb8bad10514d9067249365bab6feb22bcf960405160405180910390a35050565b60006002600083815260200190815260200160002060008473ffffffffffffffffffffffffffffffffffffffff1673ffffffffffffffffffffffffffffffffffffffff16815260200190815260200160002060009054906101000a900460ff16905092915050565b60006001905090565b60008082111515610a0e57600080fd5b600060046000848152602001908152602001600020805460018160011615610100020316600290049050111515610a4457600080fd5b600115156002600084815260200190815260200160002060003373ffffffffffffffffffffffffffffffffffffffff1673ffffffffffffffffffffffffffffffffffffffff16815260200190815260200160002060009054906101000a900460ff161515141515610ab457600080fd5b60036000838152602001908152602001600020546001600360008581526020019081526020016000205403101515610aeb57600080fd5b600090505b81600660003373ffffffffffffffffffffffffffffffffffffffff1673ffffffffffffffffffffffffffffffffffffffff16815260200190815260200160002082815481101515610b3d57fe5b90600052602060002090015414158015610b985750600660003373ffffffffffffffffffffffffffffffffffffffff1673ffffffffffffffffffffffffffffffffffffffff1681526020019081526020016000208054905081105b15610baa578080600101915050610af0565b600660003373ffffffffffffffffffffffffffffffffffffffff1673ffffffffffffffffffffffffffffffffffffffff16815260200190815260200160002081815481101515610bf657fe5b90600052602060002090016000905560006002600084815260200190815260200160002060003373ffffffffffffffffffffffffffffffffffffffff1673ffffffffffffffffffffffffffffffffffffffff16815260200190815260200160002060006101000a81548160ff021916908315150217905550600360008381526020019081526020016000206000815480929190600190039190505550817f52a35a8da1a8d5fddf3ef727810dd7f7d090a501e8e7bd1f6140447294f1550333604051808273ffffffffffffffffffffffffffffffffffffffff1673ffffffffffffffffffffffffffffffffffffffff16815260200191505060405180910390a25050565b600960009054906101000a900473ffffffffffffffffffffffffffffffffffffffff1673ffffffffffffffffffffffffffffffffffffffff163373ffffffffffffffffffffffffffffffffffffffff16141515610d5657600080fd5b806000806101000a81548173ffffffffffffffffffffffffffffffffffffffff021916908373ffffffffffffffffffffffffffffffffffffffff1602179055508073ffffffffffffffffffffffffffffffffffffffff167f96dc278a09010354092c3b2beee61cbd40382700783ba6889beb923b4c9f099e60405160405180910390a250565b60075481565b6000600154905090565b600960009054906101000a900473ffffffffffffffffffffffffffffffffffffffff1681565b600960009054906101000a900473ffffffffffffffffffffffffffffffffffffffff1673ffffffffffffffffffffffffffffffffffffffff163373ffffffffffffffffffffffffffffffffffffffff16141515610e6e57600080fd5b80600960006101000a81548173ffffffffffffffffffffffffffffffffffffffff021916908373ffffffffffffffffffffffffffffffffffffffff1602179055508073ffffffffffffffffffffffffffffffffffffffff167fa2ea9883a321a3e97b8266c2b078bfeec6d50c711ed71f874a90d500ae2eaf3660405160405180910390a250565b6000809054906101000a900473ffffffffffffffffffffffffffffffffffffffff1681565b610f226111b5565b600660003373ffffffffffffffffffffffffffffffffffffffff1673ffffffffffffffffffffffffffffffffffffffff168152602001908152602001600020805480602002602001604051908101604052809291908181526020018280548015610fab57602002820191906000526020600020905b815481526020019060010190808311610f97575b5050505050905090565b610fbd6111b5565b600560008373ffffffffffffffffffffffffffffffffffffffff1673ffffffffffffffffffffffffffffffffffffffff16815260200190815260200160002080548060200260200160405190810160405280929190818152602001828054801561104657602002820191906000526020600020905b815481526020019060010190808311611032575b50505050509050919050565b600060015414151561106357600080fd5b61106b6110cc565b80600960006101000a81548173ffffffffffffffffffffffffffffffffffffffff021916908373ffffffffffffffffffffffffffffffffffffffff16021790555050565b600060036000838152602001908152602001600020549050919050565b60006001541415156110dd57600080fd5b6110e56110ed565b600181905550565b600043905090565b81548183558181151161111c5781836000526020600020918201910161111b91906111c9565b5b505050565b602060405190810160405280600081525090565b828054600181600116156101000203166002900490600052602060002090601f016020900481019282601f1061117657803560ff19168380011785556111a4565b828001600101855582156111a4579182015b828111156111a3578235825591602001919060010190611188565b5b5090506111b191906111c9565b5090565b602060405190810160405280600081525090565b6111eb91905b808211156111e75760008160009055506001016111cf565b5090565b905600a165627a7a72305820d0428037b186ff69a68205b4a61c9e6a6e62923632c123515dbab227b40ae1180029",
  "source": "pragma solidity ^0.4.18;\n\nimport \"./Nation.sol\";\n\n/**\n * @title UpgradedNation\n * @dev Used for testing the Nation's upgradeability\n */\ncontract UpgradedNation is Nation {\n\n    function isUpgraded() public pure returns (bool) {\n        return true;\n    }\n\n}\n\n\n\n",
  "sourcePath": "/Users/florian/project/nation-framework/contracts/nation/UpgradedNation.sol",
  "compiler": {
    "name": "solc",
    "version": "0.4.18+commit.9cf6e910.Emscripten.clang"
  },
  "schemaVersion": "1.0.1",
  "updatedAt": "2018-01-26T15:57:32.393Z"
}